:020000040000FA
:04000000D1EF3CF010
:08000800FEEF3CF0D9CFE5FF4B
:10001000E1CFD9FF00C0E5FF01C0E5FF02C0E5FF69
:1000200003C0E5FF04C0E5FF05C0E5FF06C0E5FF2E
:1000300007C0E5FF08C0E5FF09C0E5FF0AC0E5FF0E
:100040000BC0E5FF0CC0E5FF0DC0E5FF0EC0E5FFEE
:100050000FC0E5FF10C0E5FF11C0E5FF12C0E5FFCE
:1000600013C0E5FF14C0E5FF15C0E5FF16C0E5FFAE
:1000700017C0E5FF18C0E5FF19C0E5FF1AC0E5FF8E
:100080001BC0E5FF1CC0E5FF1DC0E5FF1EC0E5FF6E
:100090001FC0E5FF20C0E5FF020EDBCF00F0030E1E
:1000A000DBCF01F0040EDBCF02F0050EDBCF03F057
:1000B000060EDBCF04F0070EDBCF05F0000EE56E79
:1000C000C0EC36F0E12AFAEC3BF0066EF3CF07F015
:1000D000F4CF08F0E9CF09F0000EE56E000EE56EF2
:1000E000000EE56E080EE56E0950E56E0850E56EEF
:1000F0000750E56E0650E56EAEEC23F0066EF3CFCA
:1001000007F0F4CF08F0E9CF09F0080EE126FAEC89
:100110003BF0086EF3CF09F0F4CF0AF0E9CF0BF013
:10012000000EE56E000EE56E000EE56E080EE56E43
:100130000B50E56E0A50E56E0950E56E0850E56E0D
:10014000AEEC23F0086EF3CF09F0F4CF0AF0E9CF5C
:100150000BF0080EE126FAEC3BF00A6EF3CF0BF041
:10016000F4CF0CF0E9CF0DF0000EE56E000EE56E59
:10017000000EE56E080EE56E0D50E56E0C50E56E56
:100180000B50E56E0A50E56EAEEC23F00A6EF3CF2D
:100190000BF0F4CF0CF0E9CF0DF0080EE1260C6A5D
:1001A0000D6A0E6A0F6A0D50800F800F02E1080E73
:1001B0000C5C36E2400E0E24106E030E0F20116E02
:1001C00010C0E9FF11C0EAFF08C0EEFF09C0EFFF51
:1001D000400E0E24106E030E0F20116E1050020FF1
:1001E000126E000E1120136E12C0E9FF13C0EAFF59
:1001F00006C0EEFF07C0EFFF040E1026D8B0112A8C
:1002000010C0E9FF11C0EAFF0AC0EEFF0BC0EFFF0C
:10021000060E0E26D8B00F2A0C2AD8B00D2AC3D746
:10022000010E0C6E0D6A010E0E6E0F6A010E106E3D
:10023000116A010E0410126E0482136A0550010A3D
:1002400001E1132A146A0550020A01E1142A05503B
:10025000030A03E1056A052A01D0056A005001106E
:10026000D8B4C9EF07F0156A166A176AFAEC3BF0C2
:10027000186EF3CF19F0F4CF1AF0E9CF1BF0000E8F
:10028000E56E000EE56E000EE56E030EE56E1B508A
:10029000E56E1A50E56E1950E56E1850E56EAEEC3D
:1002A00023F0186EF3CF19F0F4CF1AF0E9CF1BF05A
:1002B000080EE126185019101A101B10D8A4C3D02C
:1002C000FAEC3BF0186EF3CF19F0F4CF1AF0E9CF47
:1002D0001BF0000EE56E000EE56E000EE56E030EDF
:1002E000E56E1B50E56E1A50E56E1950E56E18501C
:1002F000E56EAEEC23F0186EF3CF19F0F4CF1AF0E0
:10030000E9CF1BF0080EE1261850191030E1FAEC85
:100310003BF01A6EF3CF1BF0F4CF1CF0E9CF1DF0C9
:10032000000EE56E000EE56E000EE56E030EE56E46
:100330001D50E56E1C50E56E1B50E56E1A50E56EC3
:10034000AEEC23F01A6EF3CF1BF0F4CF1CF0E9CF24
:100350001DF0080EE126FF0E1A26FF0E1B22FF0ECF
:100360001C22FF0E1D221A500C6E1B500D6E1850D1
:10037000010A02E1195001E030D0FAEC3BF01A6EAC
:10038000F3CF1BF0F4CF1CF0E9CF1DF0000EE56EAB
:10039000000EE56E000EE56E030EE56E1D50E56E77
:1003A0001C50E56E1B50E56E1A50E56EAEEC23F066
:1003B0001A6EF3CF1BF0F4CF1CF0E9CF1DF0080E3E
:1003C000E126FF0E1A26FF0E1B22FF0E1C22FF0E37
:1003D0001D221A500E6E1B500F6E1850020A02E1B9
:1003E000195001E030D0FAEC3BF01A6EF3CF1BF05D
:1003F000F4CF1CF0E9CF1DF0000EE56E000EE56EA7
:10040000000EE56E030EE56E1D50E56E1C50E56EA8
:100410001B50E56E1A50E56EAEEC23F01A6EF3CF6A
:100420001BF0F4CF1CF0E9CF1DF0080EE126FF0E03
:100430001A26FF0E1B22FF0E1C22FF0E1D221A5031
:10044000106E1B50116E0C50FF0A03E10D50FF0A95
:1004500001E039D00850091036E1010E156EFAECB2
:100460003BF01A6EF3CF1BF0F4CF1CF0E9CF1DF078
:10047000000EE56E000EE56E000EE56E030EE56EF5
:100480001D50E56E1C50E56E1B50E56E1A50E56E72
:10049000AEEC23F01A6EF3CF1BF0F4CF1CF0E9CFD3
:1004A0001DF0080EE1261A50010A06E11B5004E176
:1004B0001C5002E11D5001E004D0010E0C6E0D6ACB
:1004C00002D00C6A0D6A0E50FF0A03E10F50FF0ABA
:1004D00001E039D00650071036E1010E166EFAEC35
:1004E0003BF01A6EF3CF1BF0F4CF1CF0E9CF1DF0F8
:1004F000000EE56E000EE56E000EE56E030EE56E75
:100500001D50E56E1C50E56E1B50E56E1A50E56EF1
:10051000AEEC23F01A6EF3CF1BF0F4CF1CF0E9CF52
:100520001DF0080EE1261A50010A06E11B5004E1F5
:100530001C5002E11D5001E004D0010E0E6E0F6A46
:1005400002D00E6A0F6A1050FF0A03E11150FF0A31
:1005500001E039D00A500B1036E1010E176EFAECAB
:100560003BF01A6EF3CF1BF0F4CF1CF0E9CF1DF077
:10057000000EE56E000EE56E000EE56E030EE56EF4
:100580001D50E56E1C50E56E1B50E56E1A50E56E71
:10059000AEEC23F01A6EF3CF1BF0F4CF1CF0E9CFD2
:1005A0001DF0080EE1261A50010A06E11B5004E175
:1005B0001C5002E11D5001E004D0010E106E116AC2
:1005C00002D0106A116A0C50010A02E10D5001E0DC
:1005D0003CD00850070A02E1095001E036D0010E74
:1005E000156EFAEC3BF01A6EF3CF1BF0F4CF1CF053
:1005F000E9CF1DF0000EE56E000EE56E000EE56E13
:10060000030EE56E1D50E56E1C50E56E1B50E56E49
:100610001A50E56EAEEC23F01A6EF3CF1BF0F4CF58
:100620001CF0E9CF1DF0080EE1261A50010A06E180
:100630001B5004E11C5002E11D5001E004D0FF0EEC
:100640000C6E0D6E02D00C6A0D6A0E50010A02E1AA
:100650000F5001E03CD00650070A02E1075001E0CC
:1006600036D0010E166EFAEC3BF01A6EF3CF1BF08B
:10067000F4CF1CF0E9CF1DF0000EE56E000EE56E24
:10068000000EE56E030EE56E1D50E56E1C50E56E26
:100690001B50E56E1A50E56EAEEC23F01A6EF3CFE8
:1006A0001BF0F4CF1CF0E9CF1DF0080EE1261A5024
:1006B000010A06E11B5004E11C5002E11D5001E05B
:1006C00004D0FF0E0E6E0F6E02D00E6A0F6A10502D
:1006D000010A02E1115001E03CD00A50070A02E190
:1006E0000B5001E036D0010E176EFAEC3BF01A6E9B
:1006F000F3CF1BF0F4CF1CF0E9CF1DF0000EE56E38
:10070000000EE56E000EE56E030EE56E1D50E56E03
:100710001C50E56E1B50E56E1A50E56EAEEC23F0F2
:100720001A6EF3CF1BF0F4CF1CF0E9CF1DF0080ECA
:10073000E1261A50010A06E11B5004E11C5002E1B7
:100740001D5001E004D0FF0E106E116E02D0106A31
:10075000116A1250D8B4A7D11550D8B48AD00E500F
:100760000F10D8A441D00650070A02E1075001E05B
:1007700004D0FF0E0E6E0F6E37D00650071004E146
:10078000010E0E6E0F6A30D0FAEC3BF0156EF3CF0F
:100790001AF0F4CF1BF0E9CF1CF0000EE56E000E4E
:1007A000E56E000EE56E020EE56E1C50E56E1B5008
:1007B000E56E1A50E56E1550E56EAEEC23F0156E41
:1007C000F3CF1AF0F4CF1BF0E9CF1CF0080EE126AE
:1007D00015501A101B101C1004E1FF0E0E6E0F6E48
:1007E00003D0010E0E6E0F6A10501110D8A441D024
:1007F0000A50070A02E10B5001E004D0FF0E106E10
:10080000116E37D00A500B1004E1010E106E116A00
:1008100030D0FAEC3BF0156EF3CF1AF0F4CF1BF0AA
:10082000E9CF1CF0000EE56E000EE56E000EE56EE1
:10083000020EE56E1C50E56E1B50E56E1A50E56E1B
:100840001550E56EAEEC23F0156EF3CF1AF0F4CF31
:100850001BF0E9CF1CF0080EE12615501A101B10F2
:100860001C1004E1FF0E106E116E03D0010E106E0D
:10087000116A1650D8B48AD00C500D10D8A441D0AB
:100880000850070A02E1095001E004D0FF0E0C6E87
:100890000D6E37D00850091004E1010E0C6E0D6A80
:1008A00030D0FAEC3BF0156EF3CF16F0F4CF1AF01F
:1008B000E9CF1BF0000EE56E000EE56E000EE56E52
:1008C000020EE56E1B50E56E1A50E56E1650E56E91
:1008D0001550E56EAEEC23F0156EF3CF16F0F4CFA5
:1008E0001AF0E9CF1BF0080EE126155016101A1069
:1008F0001B1004E1FF0E0C6E0D6E03D0010E0C6E8A
:100900000D6A10501110D8A441D00A50030A02E118
:100910000B5001E004D0FF0E106E116E37D00A505C
:100920000B1004E1010E106E116A30D0FAEC3BF0AE
:10093000156EF3CF16F0F4CF1AF0E9CF1BF0000ECE
:10094000E56E000EE56E000EE56E020EE56E1B50C4
:10095000E56E1A50E56E1650E56E1550E56EAEEC7C
:1009600023F0156EF3CF16F0F4CF1AF0E9CF1BF099
:10097000080EE126155016101A101B1004E1FF0E88
:10098000106E116E03D0010E106E116A1750D8B49C
:100990008AD00E500F10D8A441D00650070A02E1A9
:1009A000075001E004D0FF0E0E6E0F6E37D00650D8
:1009B000071004E1010E0E6E0F6A30D0FAEC3BF026
:1009C000156EF3CF16F0F4CF17F0E9CF1AF0000E42
:1009D000E56E000EE56E000EE56E020EE56E1A5035
:1009E000E56E1750E56E1650E56E1550E56EAEECEF
:1009F00023F0156EF3CF16F0F4CF17F0E9CF1AF00D
:100A0000080EE1261550161017101A1004E1FF0EFB
:100A10000E6E0F6E03D0010E0E6E0F6A0C500D108D
:100A2000D8A441D00850070A02E1095001E004D0DF
:100A3000FF0E0C6E0D6E37D00850091004E1010E48
:100A40000C6E0D6A30D0FAEC3BF0156EF3CF16F059
:100A5000F4CF17F0E9CF1AF0000EE56E000EE56E48
:100A6000000EE56E020EE56E1A50E56E1750E56E4B
:100A70001650E56E1550E56EAEEC23F0156EF3CF13
:100A800016F0F4CF17F0E9CF1AF0080EE126155052
:100A9000161017101A1004E1FF0E0C6E0D6E03D025
:100AA000010E0C6E0D6A0450D8B4A1D00850091084
:100AB00007E10650071004E10A500B10D8B45AD0D1
:100AC0000850091009E10650071006E10A50070A0C
:100AD00003E10B5001E14ED0085009100AE1065025
:100AE000070A02E1075001E004D00A500B10D8B405
:100AF00041D0085009100BE10650070A02E10750E7
:100B000001E005D00A50070A02E10B5033E0156AF4
:100B10000850070A03E1095001E1152A155006E0C3
:100B20000650071003E10A500B1024E0155008E0AE
:100B30000650071005E10A50070A02E10B501AE0BF
:100B4000155009E00650070A02E1075001E003D002
:100B50000A500B100FE01550D8B449D00650070AC0
:100B600002E1075001E043D00A50070A02E10B50AE
:100B700001E03DD0FAEC3BF0156EF3CF16F0F4CF68
:100B800017F0E9CF1AF0000EE56E000EE56E000ECC
:100B9000E56E030EE56E1A50E56E1750E56E1650C1
:100BA000E56E1550E56EAEEC23F0156EF3CF16F042
:100BB000F4CF17F0E9CF1AF0080EE1261550186EA1
:100BC0001650196E1850191002E10C6A0D6A18506F
:100BD000010A02E1195001E002D00E6A0F6A1850B2
:100BE000020A02E1195001E002D0106A116A0850AD
:100BF00009100AE10C50FF0A03E10D50FF0A01E061
:100C000003D0010E0C6E0D6A065007100AE10E505B
:100C1000FF0A03E10F50FF0A01E003D0010E0E6E40
:100C20000F6A0A500B100AE11050FF0A03E111503D
:100C3000FF0A01E003D0010E106E116A0850070A86
:100C400002E1095001E009D00C50010A02E10D5007
:100C500001E003D0FF0E0C6E0D6E0650070A02E194
:100C6000075001E009D00E50010A02E10F5001E0E7
:100C700003D0FF0E0E6E0F6E0A50070A02E10B50F2
:100C800001E009D01050010A02E1115001E003D047
:100C9000FF0E106E116E0C5008260D5009220E50DA
:100CA00006260F50072210500A2611500B2213500F
:100CB00029E00B50E56E0A50E56E0750E56E0650D0
:100CC000E56E0950E56E0850E56EEEEC2CF0060E70
:100CD000E1260350E56E0250E56EC4EC3BF0020ED7
:100CE000E1260B50E56E0A50E56E0750E56E0650A2
:100CF000E56E0950E56E0850E56EAEEC2AF0060E82
:100D0000E1261AD0145018E00B50E56E0A50E56E3B
:100D10000750E56E0650E56E0950E56E0850E56E29
:100D2000D2EC2BF0060EE1260350E56E0250E56E84
:100D3000C4EC3BF0020EE1260550D8B424D1070ED6
:100D4000156E166A2A0E176E186AD88016AED890DD
:100D5000D8B067D0400E1724196E030E18201A6EF3
:100D600015501B6E1B061B50060DF3CF1BF01C6AA3
:100D70001BBE1C68400E1B26030E1C221BC0E9FF75
:100D80001CC0EAFFEECF1DF0EFCF1EF019C0E9FF47
:100D90001AC0EAFF1DC0EEFF1EC0EFFF400E172471
:100DA000196E030E18201A6E1950020F1D6E000ED8
:100DB0001A201E6E1B50020F1F6E000E1C20206E8C
:100DC0001FC0E9FF20C0EAFFEECF1FF0EFCF20F0F9
:100DD0001DC0E9FF1EC0EAFF1FC0EEFF20C0EFFFED
:100DE000040E1926D8B01A2A040E1B26D8B01C2AC5
:100DF0001BC0E9FF1CC0EAFFEECF1BF0EFCF1CF0D9
:100E000019C0E9FF1AC0EAFF1BC0EEFF1CC0EFFFCC
:100E1000FA0E1726D8A01806FF0E1526D8A016061B
:100E200094D708500301406F09500301416F0650E9
:100E30000301426F07500301436F0A500301446FDF
:100E40000B500301456F156A166A176A186A165027
:100E5000800F800F02E1080E155CD8B040D0400E24
:100E60001724196E030E18201A6E19C0E9FF1AC054
:100E7000EAFFEECF1BF0EFCF1CF01950020F1D6EF2
:100E8000000E1A201E6E1DC0E9FF1EC0EAFFEECF45
:100E90001DF0EFCF1EF0040E1926D8B01A2A19C083
:100EA000E9FF1AC0EAFFEECF19F0EFCF1AF01A509F
:100EB000E56E1950E56E1E50E56E1D50E56E1C5036
:100EC000E56E1B50E56EEEEC2CF0060EE126060EEC
:100ED0001726D8B0182A152AD8B0162AB8D7035022
:100EE000E56E0250E56EC4EC3BF0020EE126156A99
:100EF000166A176A186A1650800F800F02E1080EF2
:100F0000155CD8B040D0400E1724196E030E18207F
:100F10001A6E19C0E9FF1AC0EAFFEECF1BF0EFCF3F
:100F20001CF01950020F1D6E000E1A201E6E1DC0FF
:100F3000E9FF1EC0EAFFEECF1DF0EFCF1EF0040E5A
:100F40001926D8B01A2A19C0E9FF1AC0EAFFEECF55
:100F500019F0EFCF1AF01A50E56E1950E56E1E50D9
:100F6000E56E1D50E56E1C50E56E1B50E56EAEEC57
:100F70002AF0060EE126060E1726D8B0182A152AE2
:100F8000D8B0162AB8D7FF0E0026D8A001062EEF3B
:100F900001F0E4CF20F0E4CF1FF0E4CF1EF0E4CF67
:100FA0001DF0E4CF1CF0E4CF1BF0E4CF1AF0E4CF47
:100FB00019F0E4CF18F0E4CF17F0E4CF16F0E4CF47
:100FC00015F0E4CF14F0E4CF13F0E4CF12F0E4CF47
:100FD00011F0E4CF10F0E4CF0FF0E4CF0EF0E4CF47
:100FE0000DF0E4CF0CF0E4CF0BF0E4CF0AF0E4CF47
:100FF00009F0E4CF08F0E4CF07F0E4CF06F0E4CF47
:1010000005F0E4CF04F0E4CF03F0E4CF02F0E4CF46
:1010100001F0E4CF00F0E4CFD9FF1200D9CFE5FF13
:10102000E1CFD9FF00C0E5FF01C0E5FF02C0E5FF49
:1010300003C0E5FF04C0E5FF05C0E5FF06C0E5FF0E
:1010400007C0E5FF08C0E5FF09C0E5FF0AC0E5FFEE
:101050000BC0E5FF0CC0E5FF0DC0E5FF0EC0E5FFCE
:101060000FC0E5FF10C0E5FF11C0E5FF12C0E5FFAE
:1010700013C0E5FF14C0E5FF15C0E5FF16C0E5FF8E
:1010800017C0E5FF18C0E5FF19C0E5FF1AC0E5FF6E
:101090001BC0E5FF1CC0E5FF1DC0E5FF1EC0E5FF4E
:1010A000020EDBCF00F0030EDBCF01F0040EDBCF2E
:1010B00002F0050EDBCF03F0060EDBCF04F0070EC7
:1010C000DBCF05F0080EDBCF06F0090EDBCF07F013
:1010D0000A0EDBCF08F00B0EDBCF09F00C0EDBCFD6
:1010E0000AF00D0EDBCF0BF00750800FF36E0150AE
:1010F000800FF35C02E10050065C24E206C00CF0B5
:1011000007C00DF000C006F001C007F00CC000F0F1
:101110000DC001F008C00CF009C00DF002C008F0CD
:1011200003C009F00CC002F00DC003F00AC00CF0BF
:101130000BC00DF004C00AF005C00BF00CC004F0A9
:101140000DC005F00950800FF36E0350800FF35C63
:1011500002E10250085CD8B046D00850025C0C6E28
:10116000095003580D6E0D50E56E0C50E56E52ECB3
:101170003BF00C6EF3CF0DF0F4CF0EF0E9CF0FF093
:10118000020EE1260050065C106E01500758116EE9
:101190001150E56E1050E56E52EC3BF0106EF3CF3F
:1011A00011F0F4CF12F0E9CF13F0020EE126135044
:1011B000E56E1250E56E1150E56E1050E56E0F5061
:1011C000E56E0E50E56E0D50E56E0C50E56EC6EC0A
:1011D00014F00C6EF3CF0DF0F4CF0EF0E9CF0FF05A
:1011E000080EE12643D00250085E0350095A095008
:1011F000E56E0850E56E52EC3BF0086EF3CF09F057
:10120000F4CF10F0E9CF11F0020EE1260050065C99
:10121000126E01500758136E1350E56E1250E56EB2
:1012200052EC3BF0126EF3CF13F0F4CF14F0E9CF91
:1012300015F0020EE1261550E56E1450E56E1350C0
:10124000E56E1250E56E1150E56E1050E56E0950D6
:10125000E56E0850E56EC6EC14F00C6EF3CF0DF0A1
:10126000F4CF0EF0E9CF0FF0080EE1260B50800FFF
:10127000F36E0550800FF35C02E104500A5CD8B0B5
:1012800046D00A50045C086E0B500558096E095090
:10129000E56E0850E56E52EC3BF0086EF3CF09F0B6
:1012A000F4CF10F0E9CF11F0020EE1260050065CF9
:1012B000126E01500758136E1350E56E1250E56E12
:1012C00052EC3BF0126EF3CF13F0F4CF14F0E9CFF1
:1012D00015F0020EE1261550E56E1450E56E135020
:1012E000E56E1250E56E1150E56E1050E56E095036
:1012F000E56E0850E56EC6EC14F0086EF3CF09F009
:10130000F4CF10F0E9CF11F0080EE12643D00450DD
:101310000A5E05500B5A0B50E56E0A50E56E52EC12
:101320003BF00A6EF3CF0BF0F4CF12F0E9CF13F0DD
:10133000020EE1260050065C146E01500758156E2F
:101340001550E56E1450E56E52EC3BF0146EF3CF81
:1013500015F0F4CF16F0E9CF17F0020EE126175082
:10136000E56E1650E56E1550E56E1450E56E13509F
:10137000E56E1250E56E0B50E56E0A50E56EC6EC58
:1013800014F0086EF3CF09F0F4CF10F0E9CF11F0AC
:10139000080EE12600500A6E0AC00BF0126A0750D0
:1013A000800FF36E1250800FF35C02E10B50065C6D
:1013B000D8A0CBD000500B5C136E01501258146EA5
:1013C0001450E56E1350E56E52EC3BF0136EF3CF04
:1013D00014F0F4CF15F0E9CF16F0020EE126165006
:1013E000E56E1550E56E1450E56E1350E56E0F5026
:1013F000E56E0E50E56E0D50E56E0C50E56E35EC69
:101400000FF0176EF3CF18F0F4CF19F0E9CF1AF000
:10141000080EE12602501B6E1B50E56E8CEC3BF073
:101420001B6EF3CF1CF0F4CF1DF0E9CF1EF0E12AC4
:101430001E50E56E1D50E56E1C50E56E1B50E56EAE
:101440001A50E56E1950E56E1850E56E1750E56EAE
:101450003BEC0DF0176EF3CF18F0F4CF19F0E9CF95
:101460001AF0080EE1261A50E56E1950E56E185074
:10147000E56E1750E56ECEEC3AF0176E040EE126DD
:101480001650E56E1550E56E1450E56E1350E56E7E
:101490001150E56E1050E56E0950E56E0850E56E8E
:1014A00035EC0FF0136EF3CF14F0F4CF15F0E9CF55
:1014B00016F0080EE1260450186E1850E56E8CECFC
:1014C0003BF0186EF3CF19F0F4CF1AF0E9CF1BF010
:1014D000E12A1B50E56E1A50E56E1950E56E185062
:1014E000E56E1650E56E1550E56E1450E56E13501E
:1014F000E56E3BEC0DF0136EF3CF14F0F4CF15F066
:10150000E9CF16F0080EE1261650E56E1550E56E8F
:101510001450E56E1350E56ECEEC3AF0136E040EE7
:10152000E126146A156A1550E56E1350E56E1450E5
:10153000E56E1750E56E1250E56E0B50E56EEEEC61
:101540002CF0060EE1260A2A27D7E4CF1EF0E4CFBE
:101550001DF0E4CF1CF0E4CF1BF0E4CF1AF0E4CF91
:1015600019F0E4CF18F0E4CF17F0E4CF16F0E4CF91
:1015700015F0E4CF14F0E4CF13F0E4CF12F0E4CF91
:1015800011F0E4CF10F0E4CF0FF0E4CF0EF0E4CF91
:101590000DF0E4CF0CF0E4CF0BF0E4CF0AF0E4CF91
:1015A00009F0E4CF08F0E4CF07F0E4CF06F0E4CF91
:1015B00005F0E4CF04F0E4CF03F0E4CF02F0E4CF91
:1015C00001F0E4CF00F0E4CFD9FF1200D9CFE5FF5E
:1015D000E1CFD9FF00C0E5FF01C0E5FF02C0E5FF94
:1015E00003C0E5FF04C0E5FF05C0E5FF020EDBCF49
:1015F000CEF3030EDBCFCFF3040EDBCFC8F3050E23
:10160000DBCFC9F3060EDBCFCCF3070EDBCFCDF378
:10161000080EDBCFD0F3090EDBCFD1F30A0EDBCF00
:10162000CAF30B0EDBCFCBF30C0EDBCFD2F30D0ED8
:10163000DBCFD3F3030E016ECE0E006E800E026E72
:10164000030E046ED00E036E800E056E0550E56E1F
:101650000450E56E0350E56E0250E56E0150E56EF4
:101660000050E56E0301D151E56E0301D051E56EE6
:101670000301CF51E56E0301CE51E56E96EC2FF0DC
:101680000A0EE126030E016EC80E006E800E026E79
:10169000030E046ECA0E036E800E056E0550E56ED5
:1016A0000450E56E0350E56E0250E56E0150E56EA4
:1016B0000050E56E0301CB51E56E0301CA51E56EA2
:1016C0000301C951E56E0301C851E56E96EC2FF098
:1016D0000A0EE126030E016ECC0E006E800E026E25
:1016E000030E046ED20E036E800E056E0550E56E7D
:1016F0000450E56E0350E56E0250E56E0150E56E54
:101700000050E56E0301D351E56E0301D251E56E41
:101710000301CD51E56E0301CC51E56E96EC2FF03F
:101720000A0EE1260301CD51E56E0301CC51E56EB1
:10173000000EE56E080EE56EE6EC39F0006EF3CFB4
:1017400001F0040EE126600E0026000E0122C8C33F
:1017500002F0C9C303F00250002603500122030126
:10176000D151E56E0301D051E56E0301CF51E56E15
:101770000301CE51E56E92EC39F0026E040EE126C3
:1017800000C0E9FF01C0EAFF02C0EFFF0301CD5135
:10179000E56E0301CC51E56E000EE56E080EE56EB8
:1017A000E6EC39F0006EF3CF01F0040EE126600E96
:1017B0000026000E0122CAC302F0CBC303F0025080
:1017C0000026035001220301D151E56E0301D051DF
:1017D000E56E0301CF51E56E0301CE51E56E92EC4B
:1017E00039F0026E040EE12600C0E9FF01C0EAFFF5
:1017F00002C0EFFF0301D351E56E0301D251E56E44
:10180000000EE56E080EE56EE6EC39F0006EF3CFE3
:1018100001F0040EE126600E0026000E0122C8C36E
:1018200002F0C9C303F00250002603500122030155
:10183000D151E56E0301D051E56E0301CF51E56E44
:101840000301CE51E56E92EC39F0026E040EE126F2
:1018500000C0E9FF01C0EAFF02C0EFFF0301D3515E
:10186000E56E0301D251E56E000EE56E080EE56EE1
:10187000E6EC39F0006EF3CF01F0040EE126600EC5
:101880000026000E0122CAC302F0CBC303F00250AF
:101890000026035001220301D151E56E0301D0510E
:1018A000E56E0301CF51E56E0301CE51E56E92EC7A
:1018B00039F0026E040EE12600C0E9FF01C0EAFF24
:1018C00002C0EFFFC8C300F0C9C301F00301CB5150
:1018D000800FF36E0150800FF35C03E100500301B1
:1018E000CA5DD8A054D00301CD51E56E0301CC519F
:1018F000E56E0150E56E0050E56E0301CF51E56ED7
:101900000301CE51E56EEEEC2CF0060EE12603014C
:10191000D351E56E0301D251E56E0150E56E0050E2
:10192000E56E0301CF51E56E0301CE51E56EEEEC9D
:101930002CF0060EE1260301CD51E56E0301CC51DA
:10194000E56E0150E56E0050E56E0301D151E56E84
:101950000301D051E56EEEEC2CF0060EE1260301FA
:10196000D351E56E0301D251E56E0150E56E005092
:10197000E56E0301D151E56E0301D051E56EEEEC49
:101980002CF0060EE126002AD8B0012A9FD7CCC33E
:1019900000F0CDC301F00301D351800FF36E01506D
:1019A000800FF35C03E100500301D25DD8A054D056
:1019B0000150E56E0050E56E0301C951E56E03016B
:1019C000C851E56E0301CF51E56E0301CE51E56EBE
:1019D000EEEC2CF0060EE1260150E56E0050E56EAF
:1019E0000301CB51E56E0301CA51E56E0301CF51EE
:1019F000E56E0301CE51E56EEEEC2CF0060EE1260D
:101A00000150E56E0050E56E0301C951E56E03011A
:101A1000C851E56E0301D151E56E0301D051E56E69
:101A2000EEEC2CF0060EE1260150E56E0050E56E5E
:101A30000301CB51E56E0301CA51E56E0301D1519B
:101A4000E56E0301D051E56EEEEC2CF0060EE126BA
:101A5000002AD8B0012A9FD7E4CF05F0E4CF04F0E4
:101A6000E4CF03F0E4CF02F0E4CF01F0E4CF00F0E4
:101A7000E4CFD9FF1200D9CFE5FFE1CFD9FF00C0F5
:101A8000E5FF01C0E5FF02C0E5FF03C0E5FF04C0BC
:101A9000E5FF05C0E5FF06C0E5FF07C0E5FF020E54
:101AA000DBCF00F0030EDBCF01F0040EDBCF02F042
:101AB000050EDBCF03F0060EDBCF04F0070EDBCF05
:101AC00005F0080EDBCF06F0090EDBCF07F00001B2
:101AD000FC6BFD6BFE6BFF6B00500301706F0150E0
:101AE000716F0250726F0350736F04500301746F73
:101AF0000550756F0650766F0750776F0301705170
:101B000071117211731109E177C3E9FF76C3F4FF14
:101B100075C3F3FF0301745195D10301745175111D
:101B20007611771109E173C3E9FF72C3F4FF71C342
:101B3000F3FF0301705186D1030172357335006ED6
:101B4000016A0136026A036A016A026A036A005086
:101B50000301D46F0150D56F03017635773503014A
:101B6000D66FD76BD651190F006E000ED721800F9C
:101B7000F36E0301D551800FF35C02E1D451005C98
:101B800009E273C3E9FF72C3F4FF71C3F3FF0301FA
:101B9000705158D10301D451190F006E000ED52198
:101BA000800FF36E0301D751800FF35C02E1D65131
:101BB000005C09E277C3E9FF76C3F4FF75C3F3FF66
:101BC000030174513FD103017051006E7151016ED8
:101BD0007F0E7215026E00500301786F0150796F0D
:101BE000800E02107A6F7B6B03017451006E755189
:101BF000016E7F0E7615026E005003017C6F01505E
:101C00007D6F800E02107E6F7F6B03017345010BA9
:101C1000006E00A00BD003017B1F7A1F791F786D27
:101C200005E1792B03E17A2B01E17B2B0301774559
:101C3000010B006E00A00BD003017F1F7E1F7D1FD4
:101C40007C6D05E17D2B03E17E2B01E17F2B030100
:101C5000D751800FF36E0301D551800FF35C03E180
:101C6000D4510301D65D21E20301D6510301D45DB5
:101C7000006E0301D7510301D559005015E00CE661
:101C8000E86CD89003017FBFD8807F337E337D33EB
:101C90007C33010FF7E32DD0D89003017C377D37DB
:101CA0007E377F37010FF9E324D00301D4510301BC
:101CB000D65D006E0301D5510301D759005015E0E0
:101CC0000CE6E86CD89003017BBFD8807B337A3375
:101CD00079337833010FF7E308D0D89003017837D0
:101CE00079377A377B37010FF9E3D6C3D4F3D7C3FB
:101CF000D5F303017C510301782703017D510301D2
:101D0000792303017E5103017A2303017F510301EB
:101D10007B23D8807BAFD89011E37B1F7A1F791F7C
:101D2000786D05E1792B03E17A2B01E17B2B000132
:101D3000FC6BFD6BFE6B800EFF6F0BD003017851C7
:101D400079117A117B1105E1E96AF46AF36AE86AAC
:101D500079D078C300F079C301F07AC302F07BC375
:101D600003F0000E035C08E1800E025C05E1000E4A
:101D7000015C02E1000E005C0CE20301785178275F
:101D800079377A377B37FF0E0301D42701E2D50775
:101D9000E0D778C300F079C301F07AC302F07BC3C7
:101DA00003F0035014E0030178A106D0020E782757
:101DB000000E79237A237B2303017B357B337A332F
:101DC000793378330301D42B01E3D52BE2D7030118
:101DD0007A9FD4C300F0D5C301F0E86A0130003027
:101DE000076E066A0632046A056A04500001FC1197
:101DF000006E0550FD11016E0650FE11026E075077
:101E0000FF11036E78C304F079C305F07AC306F0BE
:101E10007BC307F004500012055001120650021255
:101E20000750031200500301706F0150716F025090
:101E3000726F0350736F73C3E9FF72C3F4FF71C312
:101E4000F3FF7051E4CF07F0E4CF06F0E4CF05F0E4
:101E5000E4CF04F0E4CF03F0E4CF02F0E4CF01F0EC
:101E6000E4CF00F0E4CFD9FF1200D9CFE5FFE1CFF6
:101E7000D9FF00C0E5FF01C0E5FF02C0E5FF03C0D8
:101E8000E5FF04C0E5FF05C0E5FF06C0E5FF07C0AC
:101E9000E5FF08C0E5FF09C0E5FF0AC0E5FF020E47
:101EA000DBCF00F0030EDBCF01F0040EDBCF02F03E
:101EB000050EDBCF03F0060EDBCF04F0070EDBCF01
:101EC00005F0080EDBCF06F0090EDBCF07F000505F
:101ED0000301806F0150816F0250826F0350836F46
:101EE00004500301846F0550856F0650866F0750BC
:101EF000876F0301805181118211831106E0030174
:101F0000845185118611871105E1E96AF46AF36A43
:101F1000E86A76D103018345010B006E016A026A0B
:101F2000036A010E0016016A026A036A030187450B
:101F3000010B046E056A066A076A010E0416056A3B
:101F4000066A076A0450001A0550011A0650021A60
:101F50000750031A030182358335016E036A046A50
:101F6000026A820E0126FF0E022203220422015081
:101F70000301D86F0250D96F030186358735016E92
:101F8000026AD8C305F0D9C306F0055001260650F1
:101F9000022201500301D86F0250D96F0301805112
:101FA000016E8151026E7F0E8215036E038E015009
:101FB000806F0250816F0350826F836B03018451E5
:101FC000016E8551026E7F0E8615036E038E0150E1
:101FD000846F0250856F0350866F876B03018151B8
:101FE000016E8251026E8351036E03018551056EAD
:101FF0008651066E8751E56AE56E0650E56E05501E
:10200000E56EE56A0350E56E0250E56E0150E56E3F
:10201000E5EC1FF00301886FF3CF89F3F4CF8AF367
:10202000E9CF8BF3080EE12603018051016E030115
:102030008551056E8651066E8751E56AE56E06503C
:10204000E56E0550E56EE56AE56AE56A0150E56E04
:10205000E5EC1FF0F3CF02F0F4CF03F0E9CF04F08A
:10206000080EE1260250016E0350026E0450036E0A
:10207000046A0150030188270250892303508A23F0
:1020800004508B2303018451016E03018151056EBD
:102090008251066E8351E56AE56E0650E56E055085
:1020A000E56EE56AE56AE56A0150E56EE5EC1FF06C
:1020B000F3CF02F0F4CF03F0E9CF04F0080EE126ED
:1020C0000250016E0350026E0450036E046A015008
:1020D000030188270250892303508A2304508B234D
:1020E0008BAF0ED0800E8827000E89238A238B2386
:1020F0008951886F8A51896F8B518A6F8B6B1AD087
:10210000400E03018827000E89238A238B238835FC
:102110008935886F896B89378A51E844FE0B8913AA
:102120008A358B358A6F8B6B8B37FF0E0301D8276F
:1021300001E2D90703018A9F0301D951800F7F0F64
:1021400002E1000ED85D19E3005006E0016A026A60
:10215000036A800E046E04D0016A026A036A046A8C
:10216000038E7F0E041201500301806F0250816FB5
:102170000350826F0450836F3BD0D8800301D9AFE6
:10218000D89006E30301806B816B826B836B30D048
:10219000005006E0006A016A026A800E036E04D0F5
:1021A000006A016A026A036AD8C304F0D9C305F061
:1021B000E86A053004300A6E096A0932086A085074
:1021C00000120112095002120A5003120301885131
:1021D0000012895101128A5102128B5103120050D0
:1021E0000301806F0150816F0250826F0350836F33
:1021F00083C3E9FF82C3F4FF81C3F3FF030180516E
:10220000E4CF0AF0E4CF09F0E4CF08F0E4CF07F020
:10221000E4CF06F0E4CF05F0E4CF04F0E4CF03F020
:10222000E4CF02F0E4CF01F0E4CF00F0E4CFD9FF37
:102230001200D9CFE5FFE1CFD9FF00C0E5FF01C013
:10224000E5FF02C0E5FF03C0E5FF04C0E5FF05C0F0
:10225000E5FF06C0E5FF07C0E5FF08C0E5FF09C0D0
:10226000E5FF0AC0E5FF0BC0E5FF0CC0E5FF0DC0B0
:10227000E5FF0EC0E5FF0FC0E5FF020EDBCFC0F3A8
:10228000030EDBCFC1F3040EDBCFBEF3050EDBCFB5
:10229000BFF3060EDBCFBCF3070EDBCFBDF3080E9A
:1022A000DBCFC2F3090EDBCFC3F30A0EDBCFC4F3DF
:1022B0000B0EDBCFC5F30C0EDBCFC6F30D0EDBCF61
:1022C000C7F3030E016EC00E006E800E026E030E89
:1022D000046EC20E036E800E056E0550E56E04504E
:1022E000E56E0350E56E0250E56E0150E56E00505C
:1022F000E56E0301C351E56E0301C251E56E0301B2
:10230000C151E56E0301C051E56E96EC2FF00A0E47
:10231000E126030E016EBE0E006E800E026E030EED
:10232000046EC40E036E800E056E0550E56E0450FB
:10233000E56E0350E56E0250E56E0150E56E00500B
:10234000E56E0301C551E56E0301C451E56E03015D
:10235000BF51E56E0301BE51E56E96EC2FF00A0EFB
:10236000E126030E016EBC0E006E800E026E030E9F
:10237000046EC60E036E800E056E0550E56E0450A9
:10238000E56E0350E56E0250E56E0150E56E0050BB
:10239000E56E0301C751E56E0301C651E56E030109
:1023A000BD51E56E0301BC51E56E96EC2FF00A0EAF
:1023B000E126BCC300F0BDC301F00301C751800F8B
:1023C000F36E0150800FF35C03E100500301C65D22
:1023D000D8A0E6D0BEC302F0BFC303F0000EE56E86
:1023E000080EE56E0150E56E0050E56E4EEC34F0DF
:1023F000046EF3CF05F0040EE1260550E56E04509F
:10240000E56E000EE56E080EE56EE6EC39F0046E42
:10241000F3CF05F0040EE12604C006F005C007F076
:102420000301C551800FF36E0350800FF35C03E18D
:1024300002500301C45DD8A0AFD002500301BE1901
:1024400004E103500301BF1919E002500301C4194C
:1024500004E103500301C51911E000500301BC1948
:1024600004E101500301BD1909E000500301C61940
:1024700004E101500301C71901E031D0600E0624C8
:10248000086E000E0720096E000EE56E080EE56E60
:102490000350E56E0250E56E4EEC34F00A6EF3CF59
:1024A0000BF0040EE1260A5008260B500922030106
:1024B000C351E56E0301C251E56E0301C151E56EE2
:1024C0000301C051E56E92EC39F00A6E040EE1266C
:1024D00008C0E9FF09C0EAFF0AC0EFFF59D0600E4B
:1024E0000424086E000E0520096E000EE56E080E2D
:1024F000E56E0350E56E0250E56E4EEC34F00A6E68
:10250000F3CF0BF0040EE1260A5008260B500922E7
:10251000600E04240C6E000E05200D6E0C500A2671
:102520000D500B22010E0C6E0D6A0301C0510DE01F
:1025300007E6E86CD8900C360D36010FFCE305D0A9
:10254000D8900D320C32010FFCE3010E0E6E0F6AB3
:102550000301C2510DE007E6E86CD8900E360F3645
:10256000010FFCE305D0D8900F320E32010FFCE3CF
:102570000E500C120AC0E9FF0BC0EAFFEFCF0AF0C1
:102580000A500C1208C0E9FF09C0EAFF0CC0EFFFB7
:10259000022AD8B0032A44D7002AD8B0012A0DD77E
:1025A000E4CF0FF0E4CF0EF0E4CF0DF0E4CF0CF069
:1025B000E4CF0BF0E4CF0AF0E4CF09F0E4CF08F069
:1025C000E4CF07F0E4CF06F0E4CF05F0E4CF04F069
:1025D000E4CF03F0E4CF02F0E4CF01F0E4CF00F069
:1025E000E4CFD9FF1200D9CFE5FFE1CFD9FF00C07A
:1025F000E5FF01C0E5FF02C0E5FF03C0E5FF04C041
:10260000E5FF23EC3CF09BEC1CF023EC3CF0000ECF
:10261000E56E640EE56EEFEC20F0020EE12623EC91
:102620003CF0070EE56ED00EE56E000EE56EDC0E9A
:10263000E56E000EE56E140EE56ED0EC19F0060E98
:10264000E12623EC3CF0D4EC22F023EC3CF0006AD1
:10265000080E005C1EE2030E0014016E026A040EF6
:102660000014036E046A010EE56EC20EE56E04509E
:10267000E56E0350E56E0250E56E0150E56E000E0A
:10268000E56E010EE56EE4EC21F0080EE126002A6D
:10269000DFD723EC3CF0000EE56E000EE56E030E76
:1026A000E56E200EE56E8AEC29F0040EE126000EA0
:1026B000E56E010EE56E030EE56E200EE56E8AEC0A
:1026C00029F0040EE126000EE56E000EE56E030E05
:1026D000E56E200EE56E8AEC29F0040EE126000E70
:1026E000E56E010EE56E030EE56E200EE56E8AECDA
:1026F00029F0040EE12623EC3CF0010EE56E900E6D
:10270000E56E000EE56E7A0EE56E17EC30F0040E05
:10271000E126010EE56E900EE56E000EE56E780E78
:10272000E56E17EC30F0040EE126010EE56E900E1A
:10273000E56E000EE56E790EE56E17EC30F0040ED6
:10274000E126010EE56E900EE56E000EE56E7A0E46
:10275000E56E17EC30F0040EE126010EE56E900EEA
:10276000E56E000EE56E780EE56E17EC30F0040EA7
:10277000E126010EE56E900EE56E000EE56E790E17
:10278000E56E17EC30F0040EE12623EC3CF0020E6F
:10279000E56EBC0EE56E08EC26F0020EE12623EC99
:1027A0003CF0000EE56EFF0EE56E030EE56E200EAA
:1027B000E56E000EE56E000EE56E68EC33F0060E79
:1027C000E126000EE56E000EE56E030EE56E200EAE
:1027D000E56E000EE56E000EE56E68EC33F0060E59
:1027E000E126000EE56EFF0EE56E030EE56E200E8F
:1027F000E56E000EE56E010EE56E68EC33F0060E38
:10280000E126000EE56EFF0EE56E030EE56E200E6E
:10281000E56E000EE56E010EE56E68EC33F0060E17
:10282000E12623EC3CF0000EE56E000EE56E130E83
:10283000E56E880EE56E020EE56E260EE56E7A0EEA
:10284000E56E30EC18F0070EE126000EE56E010E85
:10285000E56E130EE56E880EE56E020EE56E260E31
:10286000E56E7A0EE56E30EC18F0070EE126000EEC
:10287000E56E000EE56E130EE56E880EE56E020E37
:10288000E56E260EE56E7A0EE56E30EC18F0070E5A
:10289000E126000EE56E010EE56E130EE56E880E64
:1028A000E56E020EE56E260EE56E7A0EE56E30ECF4
:1028B00018F0070EE126000EE56E000EE56E130E11
:1028C000E56E880EE56E020EE56E260EE56E780E5C
:1028D000E56E30EC18F0070EE126000EE56E010EF5
:1028E000E56E130EE56E880EE56E020EE56E260EA1
:1028F000E56E780EE56E30EC18F0070EE126000E5E
:10290000E56E000EE56E130EE56E880EE56E020EA6
:10291000E56E260EE56E790EE56E30EC18F0070ECA
:10292000E126000EE56E010EE56E130EE56E880ED3
:10293000E56E020EE56E260EE56E790EE56E30EC64
:1029400018F0070EE12623EC3CF0020EE56E010EB6
:10295000E56E020EE56E580EE56E000EE56EFA0E9F
:10296000E56E06EC00F0060EE12623EC3CF036ECBA
:102970003AF0E4CF04F0E4CF03F0E4CF02F0E4CF88
:1029800001F0E4CF00F0E4CFD9FF1200D9CFE5FF8A
:10299000E1CFD9FF00C0E5FF01C0E5FF02C0E5FFC0
:1029A00003C0E5FF04C0E5FF05C0E5FF06C0E5FF85
:1029B00007C0E5FF08C0E5FF09C0E5FF0AC0E5FF65
:1029C000020EDBCF00F0030EDBCF01F0040EDBCFF5
:1029D00002F0050EDBCF03F0060EDBCF04F0070E8E
:1029E000DBCF05F0080EDBCF06F0090EDBCF07F0DA
:1029F000005003018C6F01508D6F02508E6F035099
:102A00008F6F04500301906F0550916F0650926FC5
:102A10000750936F03018E358F35006E016A0136C2
:102A2000026A036A016A026A036A00500301DA6FEC
:102A30000150DB6F030192359335DAC304F0DBC339
:102A400005F0045C006E01500558016E0050030152
:102A5000DA6F0150DB6F7E0EDA2701E3DB2B030117
:102A60008F45010B006E010E001603019345010B0B
:102A7000046E010E04160450001A90519111921127
:102A800093110EE1906B916BC00E926F7F0E936F5E
:102A900093C3E9FF92C3F4FF91C3F3FF905125D193
:102AA00003018C518D118E118F1105E1E96AF46AD1
:102AB000F36AE86A1AD103018C51016E8D51026EDE
:102AC0007F0E8E15036E01500301946F0250956FB7
:102AD000800E0310966F976B03019051016E915118
:102AE000026E7F0E9215036E01500301986F025023
:102AF000996F800E03109A6F9B6B03019751800FA3
:102B0000F36E03019B51800FF35C0DE19A510301B9
:102B1000965D09E1030199510301955D04E103010B
:102B200098510301945D0BE203019451942795376A
:102B300096379737FF0E0301DA2701E2DB0703011F
:102B40009C6B9D6B9E6B010E9F6F0301A06BA16B35
:102B5000A26BA36B03019C519D119E119F11D8B4D0
:102B600044D003019751800FF36E03019B51800FF6
:102B7000F35C0DE19A510301965D09E1030199515E
:102B80000301955D04E1030198510301945D20E385
:102B900003019C510301A01303019D510301A113E3
:102BA00003019E510301A21303019F510301A313CB
:102BB000030198510301945F030199510301955B4F
:102BC00003019A510301965B03019B510301975B3B
:102BD000030194519427953796379737D89003017E
:102BE0009F339E339D339C33B5D70301A02B01E364
:102BF000A12B02E30301A22B02E30301A32B030198
:102C0000DA2B01E3DB2B0301A335A333A233A1337A
:102C1000A033A29F0301DB51800F7F0F02E1000E62
:102C2000DA5D19E3005006E0016A026A036A800E69
:102C3000046E04D0016A026A036A046A038E7F0E7E
:102C40000412015003018C6F02508D6F03508E6F80
:102C500004508F6F42D0D8800301DBAFD89006E3D9
:102C600003018C6B8D6B8E6B8F6B37D0005006E041
:102C7000006A016A026A800E036E04D0006A016A6B
:102C8000026A036ADAC304F0DBC305F0E86A0530C0
:102C900004300A6E096A0932086A085000120112EB
:102CA000095002120A500312A0C304F0A1C305F098
:102CB000A2C306F0A3C307F004500012055001128E
:102CC0000650021207500312005003018C6F01508E
:102CD0008D6F02508E6F03508F6F8FC3E9FF8EC3CD
:102CE000F4FF8DC3F3FF03018C51E4CF0AF0E4CF6E
:102CF00009F0E4CF08F0E4CF07F0E4CF06F0E4CF2A
:102D000005F0E4CF04F0E4CF03F0E4CF02F0E4CF29
:102D100001F0E4CF00F0E4CFD9FF1200D9CFE5FFF6
:102D2000E1CFD9FF00C0E5FF01C0E5FF02C0E5FF2C
:102D300003C0E5FF04C0E5FF05C0E5FF06C0E5FFF1
:102D400007C0E5FF08C0E5FF09C0E5FF0AC0E5FFD1
:102D50000BC0E5FF0CC0E5FF0DC0E5FF0EC0E5FFB1
:102D60000FC0E5FF10C0E5FF11C0E5FF12C0E5FF91
:102D700013C0E5FF14C0E5FF020EDBCF00F0030E29
:102D8000DBCF01F0040EDBCF02F00150FF0A06E1B9
:102D90000250FF0A03E1016A012A01D0016A026AB6
:102DA00000507A0A01E1022A036A0050790A01E11F
:102DB000032A0050780A03E1006A002A01D0006A61
:102DC000046A056A0550800F800F02E1080E045C5A
:102DD000D8B0C0D0015005E004C006F005C007F02F
:102DE00006D004500708066E000E0554076E065004
:102DF000FF0F086EFF0E0720096E0650010F0A6EC6
:102E0000000E07200B6E0C6A0D6A0D50800F800FAC
:102E100002E1080E0C5CD8B099D00E6A0F6A0F5010
:102E2000800F800F02E1080E0E5CD8B08BD00150ED
:102E300005E00AC010F00BC011F004D008C010F07B
:102E400009C011F0025026E01150E56E1050E56EF9
:102E50000F50E56E0E50E56E0D50E56E0C50E56EB0
:102E60007CEC2DF0126E060EE126136A1350E56E0F
:102E70001250E56E0750E56E0650E56E0F50E56E98
:102E80000E50E56E0D50E56E0C50E56EFCEC35F025
:102E9000080EE126035028E00F50E56E0E50E56E57
:102EA0001150E56E1050E56E0D50E56E0C50E56E5C
:102EB0007CEC2DF0146E060EE12614C012F0136A9D
:102EC0001350E56E1250E56E0F50E56E0E50E56E34
:102ED0000750E56E0650E56E0D50E56E0C50E56E40
:102EE000FCEC35F0080EE126005028E00D50E56EB0
:102EF0000C50E56E0F50E56E0E50E56E1150E56E0C
:102F00001050E56E7CEC2DF0106E060EE12610C020
:102F100012F0136A1350E56E1250E56E0D50E56E17
:102F20000C50E56E0F50E56E0E50E56E0750E56EE5
:102F30000650E56EFCEC35F0080EE1260E2AD8B0FE
:102F40000F2A6DD70C2AD8B00D2A5FD7042AD8B023
:102F5000052A38D7015004E0070E016E046A02D03A
:102F6000016A046A056A066A0650800F800F02E152
:102F7000080E055CD8B047D0076A086A0850800F71
:102F8000800F02E1080E075C3AE2025010E00450A4
:102F9000E56E0150E56E0850E56E0750E56E06508F
:102FA000E56E0550E56EAEEC2AF0060EE126035004
:102FB00010E00850E56E0750E56E0450E56E0150D4
:102FC000E56E0650E56E0550E56EAEEC2AF0060E95
:102FD000E126005010E00650E56E0550E56E085001
:102FE000E56E0750E56E0450E56E0150E56EAEECFF
:102FF0002AF0060EE126072AD8B0082ABFD7052AEC
:10300000D8B0062AB1D7E4CF14F0E4CF13F0E4CF60
:1030100012F0E4CF11F0E4CF10F0E4CF0FF0E4CFE2
:103020000EF0E4CF0DF0E4CF0CF0E4CF0BF0E4CFE2
:103030000AF0E4CF09F0E4CF08F0E4CF07F0E4CFE2
:1030400006F0E4CF05F0E4CF04F0E4CF03F0E4CFE2
:1030500002F0E4CF01F0E4CF00F0E4CFD9FF12009A
:10306000D9CFE5FFE1CFD9FF00C0E5FF01C0E5FF03
:1030700002C0E5FF03C0E5FF04C0E5FF05C0E5FFB2
:1030800006C0E5FF07C0E5FF08C0E5FF09C0E5FF92
:103090000AC0E5FF0BC0E5FF0CC0E5FF0DC0E5FF72
:1030A0000EC0E5FF0FC0E5FF020EDBCF00F0030E00
:1030B000DBCF01F0040EDBCF02F0050EDBCF03F017
:1030C000060EDBCF04F0070EDBCF05F0080EDBCFDA
:1030D00006F0076A086A0850800F800F02E1400E70
:1030E000075CD8B040D0C00E0724096E020E08203D
:1030F0000A6E09C0E9FF0AC0EAFF000EEF6E000E7B
:103100000724096E030E08200A6EFAEC3BF00B6EE2
:10311000F3CF0CF0F4CF0DF0E9CF0EF0000EE56E1A
:10312000000EE56E000EE56E080EE56E0E50E56EC3
:103130000D50E56E0C50E56E0B50E56EAEEC23F0D5
:103140000B6EF3CF0CF0F4CF0DF0E9CF0EF0080EBC
:10315000E12609C0E9FF0AC0EAFF0BC0EFFF072A1A
:10316000D8B0082AB8D7076A086A0850800F800FBD
:1031700002E1080E075CD8B051D0096A0A6A0A5009
:10318000800F800F02E1400E095C26E2C00E092488
:103190000B6E020E0A200C6E0BC0E9FF0CC0EAFF9A
:1031A000EFCF0DF0000E09240E6E030E0A200F6EF5
:1031B0000EC0E9FF0FC0EAFFEFCF0EF00E500D5C1E
:1031C00007E20D2A0BC0E9FF0CC0EAFF0DC0EFFFBC
:1031D000092AD8B00A2AD3D7020E0A6EC00E096E89
:1031E000800E0B6E0650E56E0550E56E0B50E56ED9
:1031F0000A50E56E0950E56E0050E56EBDEC1DF01D
:10320000060EE1260250E56E0150E56EC4EC3BF07F
:10321000020EE126072AD8B0082AA7D7076A086A4B
:103220000850800F800F02E1400E075C10E2000E94
:103230000724096E030E08200A6E09C0E9FF0AC0C0
:10324000EAFF070EEF6E072AD8B0082AE9D7045024
:10325000E56E0350E56EC4EC3BF0020EE126036A16
:10326000046A0450800F800F02E1080E035CD8B09E
:1032700074D0076A086A0850800F800F02E1400E80
:10328000075CD8B048D0C00E0724096E020E082093
:103290000A6E09C0E9FF0AC0EAFFEFCF0BF0000E8B
:1032A00007240C6E030E08200D6E0CC0E9FF0DC044
:1032B000EAFFEFCF0CF00C500B5C07E20B2A09C0C1
:1032C000E9FF0AC0EAFF0BC0EFFFC00E0724096E3A
:1032D000020E08200A6E09C0E9FF0AC0EAFFEFCF1C
:1032E0000BF0000E07240C6E030E08200D6E0CC0B0
:1032F000E9FF0DC0EAFFEFCF0CF00B500C5C07E2CA
:103300000B0609C0E9FF0AC0EAFF0BC0EFFF072A5E
:10331000D8B0082AB0D7020E086EC00E076E800E15
:10332000096E0650E56E0550E56E0950E56E0850D1
:10333000E56E0750E56E0050E56EBDEC1DF0060E23
:10334000E1260250E56E0150E56EC4EC3BF0020E42
:10335000E126032AD8B0042A84D7E4CF0FF0E4CFC3
:103360000EF0E4CF0DF0E4CF0CF0E4CF0BF0E4CF9F
:103370000AF0E4CF09F0E4CF08F0E4CF07F0E4CF9F
:1033800006F0E4CF05F0E4CF04F0E4CF03F0E4CF9F
:1033900002F0E4CF01F0E4CF00F0E4CFD9FF120057
:1033A000D9CFE5FFE1CFD9FF00C0E5FF01C0E5FFC0
:1033B00002C0E5FF03C0E5FF04C0E5FF05C0E5FF6F
:1033C00006C0E5FF07C0E5FF08C0E5FF09C0E5FF4F
:1033D0000AC0E5FF0BC0E5FF0CC0E5FF0DC0E5FF2F
:1033E0000EC0E5FF0FC0E5FF10C0E5FF11C0E5FF0F
:1033F000020EDBCF00F0030EDBCF01F0040EDBCFBB
:1034000002F0050EDBCF03F0060EDBCF04F0070E53
:10341000DBCF05F0066A076A000EE56EC0EC36F0F9
:10342000E12A086A080E085CD8B05ED0096A080E66
:10343000095CD8B057D008C00AF00B6A09C00CF07C
:103440000D6AFAEC3BF00E6EF3CF0FF0F4CF10F0F4
:10345000E9CF11F0000EE56E000EE56E000EE56E90
:10346000020EE56E1150E56E1050E56E0F50E56EE0
:103470000E50E56EAEEC23F00E6EF3CF0FF0F4CFEE
:1034800010F0E9CF11F0080EE1261150E56E105052
:10349000E56E0F50E56E0E50E56E000EE56E000E07
:1034A000E56E000EE56E070EE56EE5EC1FF00E6EA4
:1034B000F3CF0FF0F4CF10F0E9CF11F0080EE126B2
:1034C0000F50E56E0E50E56E0D50E56E0C50E56E3A
:1034D0000B50E56E0A50E56EEEEC2CF0060EE12680
:1034E000092AA5D7082A9ED7086A08C009F00A6ADF
:1034F0000A50800FF36E0150800FF35C02E1005020
:10350000095CD8B094D0FAEC3BF0096EF3CF0AF026
:10351000F4CF0BF0E9CF0CF0000EE56E000EE56E77
:10352000000EE56E080EE56E0C50E56E0B50E56E74
:103530000A50E56E0950E56EAEEC23F0096EF3CF4C
:103540000AF0F4CF0BF0E9CF0CF0080EE126FAEC0C
:103550003BF00A6EF3CF0BF0F4CF0CF0E9CF0DF097
:10356000000EE56E000EE56E000EE56E080EE56ECF
:103570000D50E56E0C50E56E0B50E56E0A50E56E91
:10358000AEEC23F00A6EF3CF0BF0F4CF0CF0E9CFE2
:103590000DF0080EE1260A50071801E146D0095047
:1035A000061801E142D009C00BF00C6A0AC00DF008
:1035B0000E6A000EE56E000EE56E0E50E56E0D50C3
:1035C000E56E0C50E56E0B50E56E7CEC2DF00B6E4D
:1035D000060EE1260B500FE00350E56E0250E56E3B
:1035E000000EE56E0A50E56E0950E56E7CEC24F0A5
:1035F000050EE1260ED00350E56E0250E56E070E73
:10360000E56E0A50E56E0950E56E7CEC24F0050E7F
:10361000E1260550E56E0450E56EC4EC3BF0020E69
:10362000E1260AC007F009C006F0082A5ED7E4CFF9
:1036300011F0E4CF10F0E4CF0FF0E4CF0EF0E4CFC0
:103640000DF0E4CF0CF0E4CF0BF0E4CF0AF0E4CFC0
:1036500009F0E4CF08F0E4CF07F0E4CF06F0E4CFC0
:1036600005F0E4CF04F0E4CF03F0E4CF02F0E4CFC0
:1036700001F0E4CF00F0E4CFD9FF1200D9CFE5FF8D
:10368000E1CFD9FF00C0E5FF01C0E5FF02C0E5FFC3
:1036900003C0E5FF04C0E5FF05C0E5FF06C0E5FF88
:1036A00007C0E5FF08C0E5FF09C0E5FF0AC0E5FF68
:1036B0000BC0E5FF020EDBCFB4F3030EDBCFB5F397
:1036C000040EDBCFB2F3050EDBCFB3F3060EDBCF78
:1036D000B0F3070EDBCFB1F3080EDBCFB6F3090E64
:1036E000DBCFB7F30A0EDBCFB8F30B0EDBCFB9F3AA
:1036F0000C0EDBCFBAF30D0EDBCFBBF3030E016E66
:10370000B40E006E800E026E030E046EB60E036ED3
:10371000800E056E0550E56E0450E56E0350E56EB3
:103720000250E56E0150E56E0050E56E0301B751A1
:10373000E56E0301B651E56E0301B551E56E030177
:10374000B451E56E96EC2FF00A0EE126030E016EE1
:10375000B20E006E800E026E030E046EB80E036E83
:10376000800E056E0550E56E0450E56E0350E56E63
:103770000250E56E0150E56E0050E56E0301B9514F
:10378000E56E0301B851E56E0301B351E56E030127
:10379000B251E56E96EC2FF00A0EE126030E016E93
:1037A000B00E006E800E026E030E046EBA0E036E33
:1037B000800E056E0550E56E0450E56E0350E56E13
:1037C0000250E56E0150E56E0050E56E0301BB51FD
:1037D000E56E0301BA51E56E0301B151E56E0301D7
:1037E000B051E56E96EC2FF00A0EE126B0C300F062
:1037F000B1C301F00301BB51800FF36E0150800F84
:10380000F35C03E100500301BA5DD8A079D0B2C3E4
:1038100002F0B3C303F0000EE56E080EE56E015032
:10382000E56E0050E56E4EEC34F0046EF3CF05F01B
:10383000040EE1260550E56E0450E56E000EE56EBF
:10384000080EE56EE6EC39F0046EF3CF05F0040ED9
:10385000E1260301B951800FF36E0350800FF35C32
:1038600003E102500301B85DD8A046D0600E0424E5
:10387000066E000E0520076E000EE56E080EE56E62
:103880000350E56E0250E56E4EEC34F0086EF3CF57
:1038900009F0040EE1260850062609500722600EA2
:1038A00004240A6E000E05200B6E0A5008260B50E9
:1038B00009220301B751E56E0301B651E56E03011C
:1038C000B551E56E0301B451E56E92EC39F00A6E24
:1038D000040EE12608C0E9FF09C0EAFFEFCF08F0B7
:1038E00008500A1206C0E9FF07C0EAFF0AC0EFFF4E
:1038F000022AD8B0032AADD7002AD8B0012A7AD735
:10390000E4CF0BF0E4CF0AF0E4CF09F0E4CF08F005
:10391000E4CF07F0E4CF06F0E4CF05F0E4CF04F005
:10392000E4CF03F0E4CF02F0E4CF01F0E4CF00F005
:10393000E4CFD9FF1200D9CFE5FFE1CFD9FF00C016
:10394000E5FF01C0E5FF02C0E5FF03C0E5FF04C0DD
:10395000E5FF05C0E5FF06C0E5FF000EE56EC0EC23
:1039600036F0E12A006A080E005C22E2600E0024B4
:10397000016E026A000E0222600E0024036E046AC9
:10398000000E042203C0E9FF04C0EAFFEFCFE8FF06
:1039900001C0E9FF02C0EAFFFF0EEF6E030EE56E05
:1039A000E80EE56EC4EC3BF0020EE126002ADBD700
:1039B000006A016A080E005C18E2600E0124026EC3
:1039C000036A000E032202C0E9FF03C0EAFFFF0EF4
:1039D000EF6E030EE56EE80EE56EC4EC3BF0020EF2
:1039E000E126080E0126002AE5D7006A016A080EC2
:1039F000005C33E2026A080E025C23E2600E0124DE
:103A0000036E046A000E042202500326E86A0422B0
:103A1000600E0124056E066A000E0622025005267D
:103A2000E86A062205C0E9FF06C0EAFFEFCF05F00D
:103A3000058003C0E9FF04C0EAFF05C0EFFF022ACA
:103A4000DAD7030EE56EE80EE56EC4EC3BF0020E2D
:103A5000E126080E0126002ACAD7006A016A080E6C
:103A6000005C1CE2600E0124026E036A000E032259
:103A7000070E0226D8B0032A02C0E9FF03C0EAFFFE
:103A8000FF0EEF6E030EE56EE80EE56EC4EC3BF044
:103A9000020EE126080E0126002AE1D7006A016A1B
:103AA000080E005C33E2026A080E025C23E2600E3C
:103AB0000124036E046A000E042202500326E86A01
:103AC0000422600E0124056E066A000E06220250D2
:103AD0000526E86A062205C0E9FF06C0EAFFEFCF27
:103AE00005F0058E03C0E9FF04C0EAFF05C0EFFF43
:103AF000022ADAD7030EE56EE80EE56EC4EC3BF061
:103B0000020EE126080E0126002ACAD7006A080E16
:103B1000005C22E2980E0024016E026A000E02226E
:103B2000980E0024036E046A000E042203C0E9FF0D
:103B300004C0EAFFEFCFE8FF01C0E9FF02C0EAFFDF
:103B4000FF0EEF6E030EE56EE80EE56EC4EC3BF083
:103B5000020EE126002ADBD7E4CF06F0E4CF05F021
:103B6000E4CF04F0E4CF03F0E4CF02F0E4CF01F0BF
:103B7000E4CF00F0E4CFD9FF1200D9CFE5FFE1CFC9
:103B8000D9FF00C0E5FF01C0E5FF02C0E5FF03C0AB
:103B9000E5FF04C0E5FF05C0E5FF06C0E5FF07C07F
:103BA000E5FF08C0E5FF09C0E5FF0AC0E5FF0BC05F
:103BB000E5FF0CC0E5FF0DC0E5FF0EC0E5FF0FC03F
:103BC000E5FF10C0E5FF11C0E5FF12C0E5FF13C01F
:103BD000E5FF14C0E5FF020EDBCF00F0030EDBCFE4
:103BE00001F0040EDBCF02F0050EDBCF03F0060E72
:103BF000DBCF04F0070EDBCF05F0000EE56EC0EC66
:103C000036F0E12A066A00507A0A01E1062A076ABC
:103C10000050790A01E1072A0050780A03E1006A9E
:103C2000002A01D0006A086A096A0A6A0B6A0C6AEB
:103C30000D6A0950800F800F02E1080E085CD8B0B1
:103C40008BD00E6A0F6A0F50800F800F02E1080EB2
:103C50000E5CD8B075D0045005101EE00E500C2438
:103C6000106E0F500D20116E126A11BE12680150B5
:103C70001026025011220350122210C0E9FF11C079
:103C8000F3FF1250A1EC3CF0106E116A10500708BF
:103C9000106E000E11561AD00E500A24126E0F50DC
:103CA0000B20136E146A13BE1468015012260250C2
:103CB00013220350142212C0E9FF13C0F3FF145063
:103CC000A1EC3CF0126E12C010F0116A065010E028
:103CD0001150E56E1050E56E0F50E56E0E50E56E1A
:103CE0000950E56E0850E56EEEEC2CF0060EE1266C
:103CF000075010E00F50E56E0E50E56E1150E56E66
:103D00001050E56E0950E56E0850E56EEEEC2CF0B3
:103D1000060EE126005010E00950E56E0850E56EF1
:103D20000F50E56E0E50E56E1150E56E1050E56EC9
:103D3000EEEC2CF0060EE1260E2AD8B00F2A83D71F
:103D4000080E0A26D8B00B2A080E0C26D8B00D2A69
:103D5000082AD8B0092A6DD7E4CF14F0E4CF13F0C5
:103D6000E4CF12F0E4CF11F0E4CF10F0E4CF0FF085
:103D7000E4CF0EF0E4CF0DF0E4CF0CF0E4CF0BF085
:103D8000E4CF0AF0E4CF09F0E4CF08F0E4CF07F085
:103D9000E4CF06F0E4CF05F0E4CF04F0E4CF03F085
:103DA000E4CF02F0E4CF01F0E4CF00F0E4CFD9FF9C
:103DB0001200D9CFE5FFE1CFD9FF00C0E5FF01C078
:103DC000E5FF02C0E5FF03C0E5FF04C0E5FF05C055
:103DD000E5FF06C0E5FF07C0E5FF08C0E5FF09C035
:103DE000E5FF0AC0E5FF0BC0E5FF0CC0E5FF0DC015
:103DF000E5FF0EC0E5FF0FC0E5FF10C0E5FF11C0F5
:103E0000E5FF020EDBCF00F0030EDBCF01F0040E66
:103E1000DBCF02F0050EDBCF03F0060EDBCF04F0A4
:103E2000070EDBCF05F0066A076A0750800FF36EB6
:103E30000150800FF35C02E10050065CD8B09ED0C8
:103E4000086A096A0350800FF36E0950800FF35C13
:103E500002E10850025CD8A080D0FAEC3BF00A6E78
:103E6000F3CF0BF0F4CF0CF0E9CF0DF0000EE56EC0
:103E7000000EE56E000EE56E080EE56E0D50E56E67
:103E80000C50E56E0B50E56E0A50E56EAEEC23F07B
:103E90000A6EF3CF0BF0F4CF0CF0E9CF0DF0080E63
:103EA000E126FAEC3BF00C6EF3CF0DF0F4CF0EF000
:103EB000E9CF0FF0000EE56E000EE56E000EE56E28
:103EC000080EE56E0F50E56E0E50E56E0D50E56E76
:103ED0000C50E56EAEEC23F00C6EF3CF0DF0F4CF8A
:103EE0000EF0E9CF0FF0080EE126FAEC3BF00E6E73
:103EF000F3CF0FF0F4CF10F0E9CF11F0000EE56E24
:103F0000000EE56E000EE56E080EE56E1150E56ED2
:103F10001050E56E0F50E56E0E50E56EAEEC23F0DE
:103F20000E6EF3CF0FF0F4CF10F0E9CF11F0080EC2
:103F3000E1260F50E56E0E50E56E0D50E56E0C500B
:103F4000E56E0B50E56E0A50E56EEEEC2CF0060EB9
:103F5000E126082AD8B0092A75D70550E56E045025
:103F6000E56EC4EC3BF0020EE126000EE56EC0ECFF
:103F700036F0E12A062AD8B0072A57D7E4CF11F045
:103F8000E4CF10F0E4CF0FF0E4CF0EF0E4CF0DF06B
:103F9000E4CF0CF0E4CF0BF0E4CF0AF0E4CF09F06B
:103FA000E4CF08F0E4CF07F0E4CF06F0E4CF05F06B
:103FB000E4CF04F0E4CF03F0E4CF02F0E4CF01F06B
:103FC000E4CF00F0E4CFD9FF1200D9CFE5FFE1CF75
:103FD000D9FF00C0E5FF01C0E5FF02C0E5FF03C057
:103FE000E5FF04C0E5FF05C0E5FF06C0E5FF07C02B
:103FF000E5FF020EDBCF00F0030EDBCF01F0040E75
:10400000DBCF02F0050EDBCF03F0060EDBCF04F0B2
:10401000070EDBCF05F0080EDBCF06F0090EDBCF75
:1040200007F000500001E86F0150E96F0250EA6F9D
:104030000350EB6F04500001EC6F0550ED6F06501C
:10404000EE6F0750EF6F0001E8510001EE03F3CF70
:1040500000F0F4CF01F000500001F26F0150F36F57
:104060000001E8510001EC03F3CF00F0F4CF01F0C0
:1040700000500001F06F0150F16F0001EB510001A1
:10408000EC03F3CF00F00001F35100260050F36F72
:104090000001EA510001ED03F3CF00F00001F351FC
:1040A00000260050F36F0001EA510001EC03F3CF4A
:1040B00000F0F4CF01F00001F2510026F35101228B
:1040C0000050F26F0150F36F0001E9510001ED0360
:1040D000F3CF00F0F4CF01F00001F2510026F351CC
:1040E00001220050F26F0150F36F0001E95100010D
:1040F000EE03F3CF00F000500001F76F0001E9512B
:104100000001EC03F3CF00F0F4CF01F00050000108
:10411000F56F0150F66F0001E8510001EF03F3CF96
:1041200000F000500001FB6F0001E8510001ED03B9
:10413000F3CF00F0F4CF01F000500001F96F01500F
:10414000FA6F0001F46B0001F86B0001F4510001FB
:10415000F025006E0001F5510001F121016E000112
:10416000F6510001F221026E0001F7510001F32126
:10417000036E0050F06F0150F16F0250F26F035068
:10418000F36F0001F8510001F025006E0001F951B4
:104190000001F121016E0001FA510001F221026ECD
:1041A0000001FB510001F321036E03C0E9FF02C0CF
:1041B000F4FF01C0F3FF0050E4CF07F0E4CF06F0B6
:1041C000E4CF05F0E4CF04F0E4CF03F0E4CF02F055
:1041D000E4CF01F0E4CF00F0E4CFD9FF1200D9CF53
:1041E000E5FFE1CFD9FF00C0E5FF01C0E5FF02C058
:1041F000E5FF03C0E5FF04C0E5FF05C0E5FF06C01D
:10420000E5FF07C0E5FF08C0E5FF09C0E5FF0AC0FC
:10421000E5FF0BC0E5FF0CC0E5FF0DC0E5FF020E9A
:10422000DBCF00F0030EDBCF01F0026A036A03501C
:10423000800FF36E0150800FF35C02E10050025CCE
:10424000D8B0A3D0FAEC3BF0046EF3CF05F0F4CF76
:1042500006F0E9CF07F0000EE56E000EE56E000EE9
:10426000E56E040EE56E0750E56E0650E56E0550EE
:10427000E56E0450E56EAEEC23F0046EF3CF05F06E
:10428000F4CF06F0E9CF07F0080EE126066A076AC8
:104290000750800FF36E0550800FF35C02E104506D
:1042A000065CD8B05CD0FAEC3BF0086EF3CF09F0B6
:1042B000F4CF0AF0E9CF0BF0000EE56E000EE56ECC
:1042C000000EE56E080EE56E0B50E56E0A50E56EC9
:1042D0000950E56E0850E56EAEEC23F0086EF3CFA2
:1042E00009F0F4CF0AF0E9CF0BF0080EE126FAEC62
:1042F0003BF00A6EF3CF0BF0F4CF0CF0E9CF0DF0EA
:10430000000EE56E000EE56E000EE56E080EE56E21
:104310000D50E56E0C50E56E0B50E56E0A50E56EE3
:10432000AEEC23F00A6EF3CF0BF0F4CF0CF0E9CF34
:104330000DF0080EE126000EE56E070EE56E0B503F
:10434000E56E0A50E56E0950E56E0850E56EEEEC3C
:104350002CF0060EE126062AD8B0072A99D7030EBC
:10436000E56EE80EE56EC4EC3BF0020EE126FF0EB2
:10437000E56EFF0EE56E7A0EE56E8EEC16F0030E1E
:10438000E126022AD8B0032A52D7E4CF0DF0E4CFB9
:104390000CF0E4CF0BF0E4CF0AF0E4CF09F0E4CF67
:1043A00008F0E4CF07F0E4CF06F0E4CF05F0E4CF67
:1043B00004F0E4CF03F0E4CF02F0E4CF01F0E4CF67
:1043C00000F0E4CFD9FF1200D9CFE5FFE1CFD9FF4C
:1043D00000C0E5FF01C0E5FF02C0E5FF03C0E5FF47
:1043E00004C0E5FF05C0E5FF06C0E5FF07C0E5FF27
:1043F00008C0E5FF09C0E5FF0AC0E5FF0BC0E5FF07
:104400000CC0E5FF0DC0E5FF020EDBCF00F0030E90
:10441000DBCF01F0040EDBCF02F0050EDBCF03F0A3
:10442000060EDBCF04F0070EDBCF05F0080EDBCF66
:1044300006F0090EDBCF07F00550800F800F02E178
:10444000010E045C046A0436056A0250010A03E1A5
:10445000035001E1052A086A0250030A03E10350F0
:1044600001E1082A0250020A05E1035003E1026A51
:10447000022A01D0026A036A096A0950800FF36EAA
:104480000150800FF35C02E10050035CD8B06DD0A6
:104490000A6A0B6A0B50800F800F02E1100E0A5C53
:1044A000D8B05FD00A5007080C6E000E0B540D6E8A
:1044B0000B50800F800F02E1080E0A5C06E30A50E1
:1044C000F80F0C6EFF0E0B200D6E000EE56EC0ECAB
:1044D00036F0E12A000EE56E010EE56EC4EC3BF00D
:1044E000020EE126F29E0D50E56E0C50E56E0D5069
:1044F000E56E0C50E56E0D50E56E0C50E56E000E4D
:10450000E56E000EE56E000EE56E000EE56E000E27
:10451000E56E000EE56EE6EC0AF00C0EE1260450A6
:1045200002E08BEC31F0055002E1085002E0C9ECEA
:1045300026F0025002E1085002E004EC2EF0F28E68
:104540000750E56E0650E56EC4EC3BF0020EE12626
:10455000000EE56EC0EC36F0E12A0A2AD8B00B2A2C
:1045600099D7032AD8B0092A88D7E4CF0DF0E4CF31
:104570000CF0E4CF0BF0E4CF0AF0E4CF09F0E4CF85
:1045800008F0E4CF07F0E4CF06F0E4CF05F0E4CF85
:1045900004F0E4CF03F0E4CF02F0E4CF01F0E4CF85
:1045A00000F0E4CFD9FF1200D9CFE5FFE1CFD9FF6A
:1045B00000C0E5FF01C0E5FF02C0E5FF03C0E5FF65
:1045C00004C0E5FF05C0E5FF000EE56EC0EC36F067
:1045D000E12A006A016A0150800F800F02E1040E97
:1045E000005CD8B0ACD0EE0E026E020E036E03502B
:1045F000800F800F02E1010E025CD8A041D0000EB6
:10460000E56EC0EC36F0E12A0350E56E0250E56E2F
:10461000C4EC3BF0020EE126FF0EE56EC0EC36F076
:10462000E12A000EE56E640EE56EC4EC3BF0020E6E
:10463000E126000EE56E0A0EE56E0350E56E0250AF
:10464000E56E95EC30F0046EF3CF05F0040EE12634
:104650000550E56E0450E56E030EE56EE80EE56E5E
:1046600095EC30F0046EF3CF05F0040EE1260F0E4A
:104670000426D8B0052A0450025E0550035AB7D765
:104680000B0EE56EB80EE56EC4EC3BF0020EE126B3
:10469000EE0E026E020E036E0350800F800F02E1D9
:1046A000010E025CD8A047D0000EE56EC0EC36F0DB
:1046B000E12A0250EF08046E020E0354056E055005
:1046C000E56E0450E56EC4EC3BF0020EE126FF0EF1
:1046D000E56EC0EC36F0E12A000EE56E640EE56E84
:1046E000C4EC3BF0020EE126000EE56E0A0EE56E0C
:1046F0000350E56E0250E56E95EC30F0046EF3CF9A
:1047000005F0040EE1260550E56E0450E56E030E3B
:10471000E56EE80EE56E95EC30F0046EF3CF05F033
:10472000040EE1260F0E0426D8B0052A0450025EBE
:104730000550035AB1D7002AD8B0012A4CD7E4CF8C
:1047400005F0E4CF04F0E4CF03F0E4CF02F0E4CFCF
:1047500001F0E4CF00F0E4CFD9FF1200D9CFE5FF9C
:10476000E1CFD9FF00C0E5FF01C0E5FF02C0E5FFD2
:1047700003C0E5FF04C0E5FF05C0E5FF06C0E5FF97
:1047800007C0E5FF08C0E5FF09C0E5FF0AC0E5FF77
:104790000BC0E5FF0CC0E5FF020EDBCF00F0030EFF
:1047A000DBCF01F0040EDBCF02F0050EDBCF03F010
:1047B000060EDBCF04F0070EDBCF05F0080EDBCFD3
:1047C00006F0090EDBCF07F0D88003AED890086A58
:1047D000083608500FE0031C0C6E021C0B6E011C07
:1047E0000A6E001C096E092A0DE10A2A0BE10B4A28
:1047F0000C2A08D000C009F001C00AF002C00BF07A
:1048000003C00CF009C000F00AC001F00BC002F0B8
:104810000CC003F0D88007AED8900FE3071C0C6ED5
:10482000061C0B6E051C0A6E041C096E092A0DE19C
:104830000A2A0BE10B4A0C2A08D004C009F005C073
:104840000AF006C00BF007C00CF00C50E56E0B50E0
:10485000E56E0A50E56E0950E56E0350E56E0250B4
:10486000E56E0150E56E0050E56E40EC2BF0006EF9
:10487000F3CF01F0F4CF02F0E9CF03F0080EE12608
:10488000085016E0031C076E021C066E011C056E24
:10489000001C046E042A04E1052A02E1064A072AE4
:1048A00007C0E9FF06C0F4FF05C0F3FF045007D0BE
:1048B00003C0E9FF02C0F4FF01C0F3FF0050E4CFE2
:1048C0000CF0E4CF0BF0E4CF0AF0E4CF09F0E4CF32
:1048D00008F0E4CF07F0E4CF06F0E4CF05F0E4CF32
:1048E00004F0E4CF03F0E4CF02F0E4CF01F0E4CF32
:1048F00000F0E4CFD9FF1200D9CFE5FFE1CFD9FF17
:1049000000C0E5FF01C0E5FF02C0E5FF03C0E5FF11
:1049100004C0E5FF05C0E5FF06C0E5FF07C0E5FFF1
:1049200008C0E5FF09C0E5FF0AC0E5FF0BC0E5FFD1
:104930000CC0E5FF0DC0E5FF0EC0E5FF020EDBCFAA
:1049400000F0030EDBCF01F0040EDBCF02F0050E0A
:10495000DBCF03F0060EDBCF04F00250070A03E1C1
:10496000026A022A01D0026A056A066A0650800FAE
:10497000800F02E1080E055CD8B067D0025023E03A
:1049800005500708076E000E0654086E00C009F0B7
:104990000A6A01C00BF00C6A0750010F0D6E000E81
:1049A00008200E6E0E50E56E0D50E56E0C50E56E53
:1049B0000B50E56E0A50E56E0950E56EAEEC2AF03C
:1049C000060EE12620D005C007F006C008F000C0A2
:1049D00009F00A6A01C00BF00C6A0550FF0F0D6E5A
:1049E000FF0E06200E6E0E50E56E0D50E56E0C505B
:1049F000E56E0B50E56E0A50E56E0950E56EAEECC3
:104A00002AF0060EE12600C009F00A6A01C00BF088
:104A10000C6A0850E56E0750E56E0C50E56E0B50C1
:104A2000E56E0A50E56E0950E56EEEEC2CF0060ED0
:104A3000E1260450E56E0350E56EC4EC3BF0020E37
:104A4000E126052AD8B0062A91D7E4CF0EF0E4CFAC
:104A50000DF0E4CF0CF0E4CF0BF0E4CF0AF0E4CF9C
:104A600009F0E4CF08F0E4CF07F0E4CF06F0E4CF9C
:104A700005F0E4CF04F0E4CF03F0E4CF02F0E4CF9C
:104A800001F0E4CF00F0E4CFD9FF1200D9CFE5FF69
:104A9000E1CFD9FF00C0E5FF01C0E5FF02C0E5FF9F
:104AA00003C0E5FF04C0E5FF05C0E5FF06C0E5FF64
:104AB00007C0E5FF08C0E5FF09C0E5FF0AC0E5FF44
:104AC0000BC0E5FF0CC0E5FF0DC0E5FF020EDBCF1C
:104AD00000F0030EDBCF01F0040EDBCF02F0050E79
:104AE000DBCF03F0060EDBCF04F0070EDBCF05F0C3
:104AF00000C006F001C007F0086A096A0750800F7D
:104B0000F36E0950800FF35C02E10850065CD8A0F8
:104B100055D00150800F800F02E1080E005CD8B024
:104B200045D00950800F800F02E1080E085CD8B014
:104B30003DD0000EE56E080EE56E0150E56E0050AA
:104B4000E56E4EEC34F00A6EF3CF0BF0040EE12666
:104B50000B50E56E0A50E56E000EE56E080EE56E30
:104B6000E6EC39F00A6EF3CF0BF0040EE126600E8E
:104B70000A26000E0B22000EE56E080EE56E0950A7
:104B8000E56E0850E56E4EEC34F00C6EF3CF0DF090
:104B9000040EE1260C500A260D500B2202500C6E1A
:104BA0000AC0E9FF0BC0EAFF0CC0EFFF082AD8B02B
:104BB000092AFF0E0026D8A00106A0D70550E56EF1
:104BC0000450E56EC4EC3BF0020EE12607C0F3FF93
:104BD0000650E4CF0DF0E4CF0CF0E4CF0BF0E4CFBF
:104BE0000AF0E4CF09F0E4CF08F0E4CF07F0E4CF17
:104BF00006F0E4CF05F0E4CF04F0E4CF03F0E4CF17
:104C000002F0E4CF01F0E4CF00F0E4CFD9FF1200CE
:104C1000D9CFE5FFE1CFD9FF00C0E5FF01C0E5FF37
:104C200002C0E5FF03C0E5FF04C0E5FF05C0E5FFE6
:104C300006C0E5FF07C0E5FF08C0E5FF09C0E5FFC6
:104C4000020EDBCF00F0030EDBCF01F0000EE56EAD
:104C5000C0EC36F0E12A026A036A046A056A03506E
:104C6000800F800F02E1080E025C2DE2066A076ADF
:104C70000750800F800F02E1080E065C14E2600E00
:104C80000424086E000E0520096E06500826075001
:104C9000092208C0E9FF09C0EAFFFF0EEF6E062AED
:104CA000D8B0072AE5D70150E56E0050E56EC4EC98
:104CB0003BF0020EE126080E0426D8B0052A022A8F
:104CC000D8B0032ACCD70150E56E0050E56E000E37
:104CD000E56E030EE56EE6EC39F0026EF3CF03F0FD
:104CE000040EE1260350E56E0250E56EC4EC3BF085
:104CF000020EE126026A036A046A056A0350800F05
:104D0000800F02E1080E025C2DE2066A076A075076
:104D1000800F800F02E1080E065C14E2600E04248E
:104D2000086E000E0520096E06500826075009225D
:104D300008C0E9FF09C0EAFF000EEF6E062AD8B0EE
:104D4000072AE5D70150E56E0050E56EC4EC3BF054
:104D5000020EE126080E0426D8B0052A022AD8B091
:104D6000032ACCD7E4CF09F0E4CF08F0E4CF07F072
:104D7000E4CF06F0E4CF05F0E4CF04F0E4CF03F095
:104D8000E4CF02F0E4CF01F0E4CF00F0E4CFD9FFAC
:104D90001200D9CFE5FFE1CFD9FF00C0E5FF01C088
:104DA000E5FF02C0E5FF03C0E5FF04C0E5FF05C065
:104DB000E5FF06C0E5FF07C0E5FF08C0E5FF09C045
:104DC000E5FF0AC0E5FF0BC0E5FF0CC0E5FF0DC025
:104DD000E5FF020E016E000E006E800E026E000EE8
:104DE000046E600E036E800E056E000EE56E400EC2
:104DF000E56E0550E56E0450E56E0350E56E025019
:104E0000E56E0150E56E0050E56E11EC2FF0080ED6
:104E1000E126000EE56EC0EC36F0E12A006A016A78
:104E2000080E005CD8B055D0000E0124026E036A53
:104E3000020E0322046A080E045CD8B046D0045067
:104E40000224056EE86A0320066E076A080E075CF6
:104E50003AE207C008F0096A010E0A6E000E0B6EF6
:104E6000075006E0E86CD8900A360B36010FFCE3D9
:104E700005C0E9FF06C0EAFFEFCF0CF00D6A0C5049
:104E80000A160D500B160A500B101BE004C00AF056
:104E90000B6A0A5007080A6E000E0B5600C00CF091
:104EA0000D6A0D50E56E0C50E56E0B50E56E0A5024
:104EB000E56E0950E56E0850E56EEEEC2CF0060E3E
:104EC000E126072AC3D7042AB6D7080E0126002AEE
:104ED000A7D7E4CF0DF0E4CF0CF0E4CF0BF0E4CF94
:104EE0000AF0E4CF09F0E4CF08F0E4CF07F0E4CF14
:104EF00006F0E4CF05F0E4CF04F0E4CF03F0E4CF14
:104F000002F0E4CF01F0E4CF00F0E4CFD9FF1200CB
:104F1000D9CFE5FFE1CFD9FF00C0E5FF01C0E5FF34
:104F200002C0E5FF03C0E5FF04C0E5FF05C0E5FFE3
:104F300006C0E5FF07C0E5FF08C0E5FF09C0E5FFC3
:104F40000AC0E5FF0BC0E5FF020EDBCF00F0030E49
:104F5000DBCF01F0040EDBCF02F0050EDBCF03F058
:104F6000005001100210031005E1E96AF46AF36AC7
:104F7000E86A71D0960E046E056A035009E0D89075
:104F80000332023201320032042AD8B0052AF5D7A2
:104F900004C006F005C007F0000E035C08E1800EB7
:104FA000025C05E1000E015C02E1000E005C19E20A
:104FB00000500026013602360336FF0E0426D8A024
:104FC0000506000E035C08E1800E025C05E1000EA0
:104FD000015C02E1000E005CEBE304C006F005C0DA
:104FE00007F00050046E0150056E7F0E0214086E2B
:104FF000096A0450FF0A08E10550FF0A05E108505C
:105000007F0A02E1095001E007D0006A016A026AE2
:10501000036A062AD8B0072A029EE86A07300630DB
:105020000B6E0A6A0A32086A0850001201120A500E
:1050300002120B50031200500301A86F0150A96F18
:105040000250AA6F0350AB6FABC3E9FFAAC3F4FFD2
:10505000A9C3F3FFA851E4CF0BF0E4CF0AF0E4CFEB
:1050600009F0E4CF08F0E4CF07F0E4CF06F0E4CF96
:1050700005F0E4CF04F0E4CF03F0E4CF02F0E4CF96
:1050800001F0E4CF00F0E4CFD9FF1200D9CFE5FF63
:10509000E1CFD9FF00C0E5FF01C0E5FF02C0E5FF99
:1050A00003C0E5FF04C0E5FF05C0E5FF06C0E5FF5E
:1050B00007C0E5FF08C0E5FF09C0E5FF0AC0E5FF3E
:1050C0000BC0E5FF020EDBCF00F0030EDBCF01F0DB
:1050D000D88001AED890D8B062D00150800F800F38
:1050E00002E1080E005CD8B05AD0010E026E036ACD
:1050F00000500DE007E6E86CD89002360336010F49
:10510000FCE305D0D89003320232010FFCE3021C0D
:10511000006E031C016E026A036A046A056A03508A
:10512000800F800F02E1080E025C39E2066A076A0E
:105130000750800F800F02E1080E065C28E2600E27
:105140000424086E000E0520096E0650082607503C
:105150000922600E04240A6E000E05200B6E065014
:105160000A2607500B220AC0E9FF0BC0EAFFEFCF67
:105170000AF000500B6E0B500A1608C0E9FF09C078
:10518000EAFF0AC0EFFF062AD8B0072AD1D7080ED7
:105190000426D8B0052A022AD8B0032AC0D7E4CF03
:1051A0000BF0E4CF0AF0E4CF09F0E4CF08F0E4CF4D
:1051B00007F0E4CF06F0E4CF05F0E4CF04F0E4CF4D
:1051C00003F0E4CF02F0E4CF01F0E4CF00F0E4CF4D
:1051D000D9FF1200D9CFE5FFE1CFD9FF00C0E5FF2D
:1051E00001C0E5FF02C0E5FF03C0E5FF04C0E5FF25
:1051F00005C0E5FF06C0E5FF07C0E5FF08C0E5FF05
:1052000009C0E5FF0AC0E5FF0BC0E5FF020EDBCFDA
:1052100000F0030EDBCF01F0D88001AED890D8B0FB
:105220005ED00150800F800F02E1080E005CD8B004
:1052300056D0010E026E036A00500DE007E6E86CDE
:10524000D89002360336010FFCE305D0D890033224
:105250000232010FFCE3006A016A046A056A015028
:10526000800F800F02E1080E005C39E2066A076ACF
:105270000750800F800F02E1080E065C28E2600EE6
:105280000424086E000E0520096E065008260750FB
:105290000922600E04240A6E000E05200B6E0650D3
:1052A0000A2607500B220AC0E9FF0BC0EAFFEFCF26
:1052B0000AF002500B6E0B500A1208C0E9FF09C039
:1052C000EAFF0AC0EFFF062AD8B0072AD1D7080E96
:1052D0000426D8B0052A002AD8B0012AC0D7E4CFC6
:1052E0000BF0E4CF0AF0E4CF09F0E4CF08F0E4CF0C
:1052F00007F0E4CF06F0E4CF05F0E4CF04F0E4CF0C
:1053000003F0E4CF02F0E4CF01F0E4CF00F0E4CF0B
:10531000D9FF1200D9CFE5FFE1CFD9FF00C0E5FFEB
:1053200001C0E5FF02C0E5FF03C0E5FF04C0E5FFE3
:1053300005C0E5FF06C0E5FF07C0E5FF08C0E5FFC3
:10534000020EDBCF00F0030EDBCF01F0040EDBCF4B
:1053500002F0050EDBCF03F0000EE56EC0EC36F078
:10536000E12A0350800F800F02E1010E025C026A05
:105370000236036A046A0450800F800F02E1040EB3
:10538000035CD8B044D003C005F004C006F002505E
:1053900006E003500308056E000E0454066E055027
:1053A000040F076E000E0620086E05500308056EF8
:1053B000000E06560650E56E0550E56E0650E56E89
:1053C0000550E56E0650E56E0550E56E0850E56E39
:1053D0000750E56E0850E56E0750E56E0850E56E23
:1053E0000750E56EE6EC0AF00C0EE1260150E56E82
:1053F0000050E56EC4EC3BF0020EE126000EE56EB7
:10540000C0EC36F0E12A032AD8B0042AB4D7E4CF9E
:1054100008F0E4CF07F0E4CF06F0E4CF05F0E4CFE6
:1054200004F0E4CF03F0E4CF02F0E4CF01F0E4CFE6
:1054300000F0E4CFD9FF1200D9CFE5FFE1CFD9FFCB
:1054400000C0E5FF01C0E5FF02C0E5FF03C0E5FFC6
:1054500004C0E5FF05C0E5FF06C0E5FF07C0E5FFA6
:10546000020EDBCF00F0030EDBCF01F0040EDBCF2A
:1054700002F0050EDBCF03F0060EDBCF04F0070EC3
:10548000DBCF05F00550E56E0450E56E0350E56E88
:105490000250E56E0150E56E0050E56EE8EC38F024
:1054A000066E060EE1260650D8B445D00550E56ECE
:1054B0000450E56E000EE56E080EE56EE6EC39F080
:1054C000046EF3CF05F0040EE126A00E0424066E50
:1054D000000E0520076E0250062603500722A00E7C
:1054E0000426000E05220450022605500322010E58
:1054F000046E056A00500DE007E6E86CD8900436AB
:105500000536010FFCE305D0D89005320432010FB7
:10551000FCE3041C006E051C016E02C0E9FF03C021
:10552000EAFFEFCF02F00050021606C0E9FF07C005
:10553000EAFF02C0EFFFE4CF07F0E4CF06F0E4CFCC
:1055400005F0E4CF04F0E4CF03F0E4CF02F0E4CFC1
:1055500001F0E4CF00F0E4CFD9FF1200D9CFE5FF8E
:10556000E1CFD9FF00C0E5FF01C0E5FF02C0E5FFC4
:1055700003C0E5FF04C0E5FF05C0E5FF06C0E5FF89
:1055800007C0E5FF020EDBCF00F0030EDBCF01F01A
:10559000040EDBCF02F0050EDBCF03F0060EDBCFEF
:1055A00004F0070EDBCF05F00550E56E0450E56E04
:1055B0000350E56E0250E56E0150E56E0050E56E59
:1055C000E8EC38F0066E060EE1260650D8B445D059
:1055D0000550E56E0450E56E000EE56E080EE56EB2
:1055E000E6EC39F0046EF3CF05F0040EE126600E10
:1055F0000424066E000E0520076E02500626035096
:105600000722600E0426000E0522045002260550D3
:105610000322010E046E056A00500DE007E6E86CF7
:10562000D89004360536010FFCE305D0D89005323A
:105630000432010FFCE3041C006E051C016E02C065
:10564000E9FF03C0EAFFEFCF02F00050021606C0E8
:10565000E9FF07C0EAFF02C0EFFFE4CF07F0E4CFA5
:1056600006F0E4CF05F0E4CF04F0E4CF03F0E4CF9C
:1056700002F0E4CF01F0E4CF00F0E4CFD9FF120054
:10568000D9CFE5FFE1CFD9FF00C0E5FF01C0E5FFBD
:1056900002C0E5FF03C0E5FF04C0E5FF05C0E5FF6C
:1056A00006C0E5FF07C0E5FF08C0E5FF09C0E5FF4C
:1056B0000AC0E5FF020EDBCF00F0030EDBCF01F0E6
:1056C000040EDBCF02F0050EDBCF03F0060EDBCFBE
:1056D00004F0070EDBCF05F0080EDBCF06F0090E55
:1056E000DBCF07F0086A096A0744010B0A6E0AB0AB
:1056F0001BD0045004260536063607360750035CD7
:1057000008E10650025C05E10550015C02E104502D
:10571000005C06E2D890073206320532043204D02B
:10572000092A09C008F0E0D70750035C08E10650D9
:10573000025C05E10550015C02E10450005C08E3F5
:105740000450005E0550015A0650025A0750035A91
:10575000D890073206320532043208C009F0080634
:105760000950E2E103C0E9FF02C0F4FF01C0F3FF0A
:105770000050E4CF0AF0E4CF09F0E4CF08F0E4CF22
:1057800007F0E4CF06F0E4CF05F0E4CF04F0E4CF77
:1057900003F0E4CF02F0E4CF01F0E4CF00F0E4CF77
:1057A000D9FF1200D9CFE5FFE1CFD9FF00C0E5FF57
:1057B00001C0E5FF02C0E5FF03C0E5FF04C0E5FF4F
:1057C00005C0E5FF06C0E5FF07C0E5FF020EDBCF21
:1057D00000F0030EDBCF01F0040EDBCF02F0050E6C
:1057E000DBCF03F0060EDBCF04F0070EDBCF05F0B6
:1057F0000550E56E0450E56E0350E56E0250E56E0F
:105800000150E56E0050E56EE8EC38F0066E060ECD
:10581000E1260650D8B441D00550E56E0450E56E3F
:10582000000EE56E080EE56EE6EC39F0046EF3CF7F
:1058300005F0040EE126600E0424066E000E05201D
:10584000076E0250062603500722600E0426000E43
:1058500005220450022605500322010E046E056A3B
:1058600000500DE007E6E86CD89004360536010FCD
:10587000FCE305D0D89005320432010FFCE302C0EE
:10588000E9FF03C0EAFFEFCF00F00450001A06C0A2
:10589000E9FF07C0EAFF00C0EFFFE4CF07F0E4CF65
:1058A00006F0E4CF05F0E4CF04F0E4CF03F0E4CF5A
:1058B00002F0E4CF01F0E4CF00F0E4CFD9FF120012
:1058C000D9CFE5FFE1CFD9FF00C0E5FF01C0E5FF7B
:1058D00002C0E5FF03C0E5FF04C0E5FF05C0E5FF2A
:1058E00006C0E5FF07C0E5FF020EDBCF00F0030EA8
:1058F000DBCF01F0040EDBCF02F0050EDBCF03F0AF
:10590000060EDBCF04F0070EDBCF05F00550E56E89
:105910000450E56E0350E56E0250E56E0150E56EF1
:105920000050E56EE8EC38F0066E060EE1260650F3
:10593000D8B441D00550E56E0450E56E000EE56E1A
:10594000080EE56EE6EC39F0046EF3CF05F0040EB8
:10595000E126A00E0424066E000E0520076E0250FC
:10596000062603500722A00E0426000E052204502E
:10597000022605500322010E046E056A00500DE058
:1059800007E6E86CD89004360536010FFCE305D035
:10599000D89005320432010FFCE302C0E9FF03C0D6
:1059A000EAFFEFCF00F00450001206C0E9FF07C085
:1059B000EAFF00C0EFFFE4CF07F0E4CF06F0E4CF4A
:1059C00005F0E4CF04F0E4CF03F0E4CF02F0E4CF3D
:1059D00001F0E4CF00F0E4CFD9FF1200D9CFE5FF0A
:1059E000E1CFD9FF00C0E5FF01C0E5FF02C0E5FF40
:1059F00003C0E5FF04C0E5FF05C0E5FF06C0E5FF05
:105A000007C0E5FF020EDBCF00F0030EDBCF01F095
:105A1000040EDBCF02F0050EDBCF03F0060EDBCF6A
:105A200004F0070EDBCF05F00550E56E0450E56E7F
:105A30000350E56E0250E56E0150E56E0050E56ED4
:105A4000E8EC38F0066E060EE1260650D8B441D0D8
:105A50000550E56E0450E56E000EE56E080EE56E2D
:105A6000E6EC39F0046EF3CF05F0040EE126600E8B
:105A70000424066E000E0520076E02500626035011
:105A80000722600E0426000E05220450022605504F
:105A90000322010E046E056A00500DE007E6E86C73
:105AA000D89004360536010FFCE305D0D8900532B6
:105AB0000432010FFCE302C0E9FF03C0EAFFEFCFAD
:105AC00000F00450001206C0E9FF07C0EAFF00C062
:105AD000EFFFE4CF07F0E4CF06F0E4CF05F0E4CF2A
